:020000040800F2
:10000000080E002079020008AF3B00082D370008D9
:10001000AD3B00086D1C0008E54200080000000030
:10002000000000000000000000000000B33B0008DA
:10003000B31C000800000000B13B0008B53B0008FD
:10004000930200089302000893020008930200083C
:10005000930200089302000893020008930200082C
:10006000930200089302000893020008930200081C
:10007000711C00087D1C0008930200089302000810
:1000800093020008930200089302000893020008FC
:1000900093020008930200089302000893020008EC
:1000A00093020008930200089302000893020008DC
:1000B000193C00089302000893020008930200080C
:1000C00093020008930200089302000893020008BC
:1000D00093020008C1420008CD420008D94200083E
:1000E000B51C000893020008930200089302000860
:1000F000930200089302000893020008930200088C
:10010000930200089302000893020008930200087B
:10011000930200089302000893020008930200086B
:10012000930200089302000893020008930200085B
:1001300000F002F800F090F80AA090E8000C824469
:100140008344AAF10107DA4501D100F085F8AFF246
:10015000090EBAE80F0013F0010F18BFFB1A43F0A5
:1001600001031847CC430000EC430000103A24BFC1
:1001700078C878C1FAD8520724BF30C830C144BF0C
:1001800004680C607047000000230024002500264E
:10019000103A28BF78C1FBD8520728BF30C148BFEA
:1001A0000B6070476E2900F08D81702900F0D782B6
:1001B000662904F02581652904F02281672904F06D
:1001C0001F81612904F01E8103681B0A28BF41F0CA
:1001D0008001692900F03A81642900F0378175298E
:1001E00000F034816F2900F06482782900F0A38246
:1001F000E92900F0FF81E42900F0FC81F52900F0F5
:10020000F981EF2900F06182F82900F0A2820368E9
:10021000DB0928BF41F08001632900F0A58773291D
:1002200000F0AA87E32900F0B587F32900F0BA8728
:10023000002070471FB501F007F8040000200021DE
:1002400004F0C8F8401C60600020002104F0ACF805
:10025000E0601FBD10B510BD00F0C8FF1146FFF7EC
:10026000E9FF04F082F801F0A5F803B4FFF7F2FF0C
:1002700003BC01F0EDF80000094880470948004739
:10028000FEE7FEE7FEE7FEE7FEE7FEE7FEE7FEE746
:10029000FEE7FEE704480549054A064B70470000A3
:1002A000173C00083101000808080020080E002053
:1002B000080A0020080A00207CB51D4616460C00DE
:1002C000009001D02044401E074B7B442A466946DB
:1002D0000190304600F00FF905461CB10020694638
:1002E00000F01CF928467CBD5902000040EA0103D9
:1002F000024630B59B0710D14FF0013400E008C230
:1003000008C91D1B9D4315EAC41FF8D013F0FF0157
:1003100002F8011B0DD01B0AF8E711F8013B002B76
:1003200002F8013B05D011F8013B002B02F8013B1C
:10033000F3D130BD4FF0000200B513469446964607
:10034000203922BFA0E80C50A0E80C50B1F12001E8
:10035000BFF4F7AF090728BFA0E80C5048BF0CC096
:100360005DF804EB890028BF40F8042B08BF7047F4
:1003700048BF20F8022B11F0804F18BF00F8012B66
:10038000704770477047704770B5044685690068CC
:10039000C10601D5302600E02026C00707D070BD79
:1003A000D4E9012130469047206A401C20626D1E2E
:1003B000F6D570BD70B5044685690078C00707D1D1
:1003C00070BDD4E9012120209047206A401C2062A2
:1003D0006D1EF6D570BD09684A0501D540B270475B
:1003E000C905FCD500B2704709684A0501D5C0B2FD
:1003F0007047C905FCD580B2704770B50C460546FC
:10040000012A05D02878800600D5EA69002302E099
:10041000012305E05B1C934202D2E05C0028F9D185
:10042000A869E618C01AA861286A184428622846F4
:10043000FFF7AAFF04E0D5E9012114F8010B90476A
:10044000B442F8D32846FFF7B5FF70BD2DE9F0415F
:100450000646002410687529314616A510D0FFF70E
:10046000BAFF002802DA404213A507E031688A0784
:1004700001D512A502E0490704D511A5012401E028
:10048000FFF7B2FF00210A2206F1240709E0B0FBC2
:10049000F2FCB0FBF2F302FB1C003030785418463B
:1004A000491C0028F3D123462A463046BDE8F041D6
:1004B00000F069BA000000002D0000002B000000D1
:1004C0002000000011680268006A530501D5087019
:1004D0000AE0D30501D5088006E0130603D5C2174C
:1004E000C1E9000200E008600120704701694A1C70
:1004F00002610878704700B58FB0CDE90131002165
:10050000059105497944CDE903101146684600F08C
:1005100031F90FB000BD0000E5FFFFFF0A6802F8E7
:10052000010B0A607047D1E900239A4202D2531CA2
:100530000B601070704700002DE9FF5F15468A467A
:100540000446DFF8AC80F8440027D8E900103E46A6
:10055000CDE9001010E03AF816106A4602A800F043
:1005600025FE411C07D02178890603D5E269391898
:1005700091420DD80744761C2078800602D5E069A8
:10058000B84205DDAE42E6DB3AF816000028E2D1BB
:10059000A069C01BA0612046FFF7F6FED8E9001055
:1005A000CDE90010002017E03AF818106A4602A8BA
:1005B00000F0FCFDB0F1FF3F81460BD000250DF1AE
:1005C000080B05E0D4E901211BF8050090476D1CDC
:1005D0004D45F7D308F10100B0428046E4DB206AC4
:1005E000384420622046FFF7E5FEBDE8FF9F00008B
:1005F000EA3E00002DE9F0418046D21D22F00702BC
:100600000025D2E90002F52915A614D0011E72F1C9
:10061000000106DA0023D0EB030063EB020211A60F
:1006200008E0D8F800108B0701D50FA602E04907B3
:1006300001D50EA601251146002408F1240704E087
:1006400000F05CF930323A55641C50EA0102F7D1EF
:100650002B46324621464046BDE8F04100F093B9B2
:10066000000000002D0000002B0000002000000012
:1006700030B4002100F1240408E002F00705D2089C
:10068000303542EA4372DB086554491C52EA0305DF
:10069000F3D10468002310A2250707D5A40600D4CF
:1006A00021B1C46901230DA2641EC46130BC00F0F5
:1006B0006AB910B5044621461068FFF795FE024658
:1006C0002046BDE810400023D2E7D21D22F00701EA
:1006D000D1E90023CCE7000000000000300000005A
:1006E000F0B40D460188090502D5214C7C4402E096
:1006F0001F4C7C440E34002100F1240608E002F077
:100700000F071209E75D42EA03721B097754491C7F
:1007100052EA0307F3D102780023120704D5702DA3
:1007200006D009B1022311342246F0BC00F02BB9E7
:1007300001231034F8E770B504460D4621461068D1
:10074000FFF752FE024629462046BDE870400023CE
:10075000C6E7D21D22F00703D3E90023C0E70368F0
:10076000126843F0200303600823C3610023B7E746
:100770004C3D00002DE9F05F894604464FF0000A29
:10078000DFF874B1FB44C0F820A02046E168884738
:10079000002874D0252806D0D4E901219047206A8A
:1007A000401C2062F1E700265F462046E16888474A
:1007B0002028054607DB312D05D2781910F8200CCA
:1007C00008B10643F1E7B00701D526F00406C4F8E6
:1007D0001CA00027C4F818A02A2D09D0284603F031
:1007E000BDFD38B304EB8708303DC8F8185019E058
:1007F00059F8041B204604EB87029161E1688847A1
:10080000012F054618D1E069002820DA26F02006DD
:100810001DE0D8F8180000EB800005EB40003038F0
:10082000C8F818002046E1688847054603F096FDA1
:100830000028EED1012F0AD02E2D08D12046E168E4
:1008400088477F1C0546022F46F02006C4DBA069BE
:10085000002803DA404246F00106A061F00701D00B
:1008600026F010066C2D0BD0682D09D04C2D39D0F8
:100870006A2D35D0742D35D07A2D33D016E038E07E
:10088000E1682F4620468847B842054609D16C2FBB
:1008900026D04FF48060E16806432046884705462D
:1008A00004E06C2F1AD04FF4807006430DB3A5F10D
:1008B0004100192802D8203546F400664A462946E8
:1008C000204626604E46FFF76DFC80B101280BD014
:1008D000F61D26F0070000F1080956E74020E4E77E
:1008E0008020D8E70020D6E706F104094DE7284626
:1008F00052E7206ABDE8F09FDC3C000030B5B0F163
:100900000A024FEA900E71F100034EEA817EB0EBCD
:100910000E0061EB91014FEA101E4EEA017E10EBD2
:100920000E0041EB11114FEA102E4EEA016E10EB52
:100930000E0041EB11214FEA104E4EEA014E10EB32
:100940000E0041EB1141401841F100014FEAD00087
:1009500040EA41704FEAD10110EB80054FEA810473
:1009600044EA907444EB01046D1944EB0404521BF7
:10097000A3414FF0000348BF0A3200D530BD401CF0
:1009800041F1000130BD2DE9F0470D4699469246F0
:10099000044600F124080168880604D5E06921F0C6
:1009A0001001216000E00120A84201DD471B00E0AA
:1009B0000027A1697A1902EB0900081AA0612078C2
:1009C000C00602D42046FFF7DFFC002608E0D4E989
:1009D00001211AF806009047206A401C761C20620C
:1009E0004E45F4DB2078C0060AD52046FFF7CCFC44
:1009F00006E0D4E9012130209047206A401C2062A3
:100A0000381EA7F10107F4DC07E0D4E9012118F84A
:100A100005009047206A401C2062281EA5F10105B0
:100A2000F3DC2046FFF7C6FC2078000602D5022042
:100A3000BDE8F0870120FBE770472DE9FF4F0C462A
:100A40001E464FF0FF378BB0D2E90001DDF8608021
:100A50000A908A46C1F30A5505B93D460021084669
:100A60004FF00000BAF1000F00F4400005DA00EB8F
:100A700080004FF4400101EA50004FEA9059B9F16B
:100A8000010F00DDB9460A9850EA4A000ED044F63C
:100A90001050A5F2FF3545432F14B8F1000F1ED0BA
:100AA0007542291E1EDDC9F100021CE0B8F1010FDC
:100AB0004FF0000001D0302103E0F24305E0215463
:100AC000401CB042FBDB30460022002121540B9930
:100AD000C1F80880C1E900200FB0BDE8F08FBD1B50
:100AE0006D1CDEE74A4600DA694206A800F0F0FB1A
:100AF00006AB93E8070003AB83E8070050460A996A
:100B000000F0ADFC8DE80700A0F500501F38009004
:100B10000398002D0ADD42F21F014A4608440023D3
:100B200003A90390684600F016FF09E0A0F5005005
:100B30004A461F38002303A90390684600F020FFAF
:100B40008DE807000004000C03D04FF0FF3041088F
:100B500000E01046B8F1000F03D0002200921546C5
:100B60001EE0751E05D4FFF7C9FE303262556D1EBA
:100B7000F9D5B3460122084302D000227F1C04E0CD
:100B80002078302801D100227F1E002A099784D0C6
:100B90001DE0112D07DAFFF7B1FE303262556D1CF2
:100BA00050EA0102F5D1084302D00098C8B10EE026
:100BB0000021681E05E0235C625C63542254401EE1
:100BC000491C8142F7DBAB46A81B401E0990002060
:100BD00004F80B000B98099AC0F80880C0E9002BB4
:100BE0007AE711264FF0000857E72DE9F04F8846C5
:100BF0000446D21D22F0070191B0D1E90001CDE9F0
:100C00000A0103F087FB02460B98C00F01D02D208C
:100C100007E02068810701D52B2002E0202101EAAE
:100C2000C000032A099001D0072A05DB034641468C
:100C3000204600F00DFB0BE12078800601D5E0692D
:100C400000E00620B8F1650F814606D0B8F1660FC6
:100C500018D0B8F1670F70D131E00020B9F1110F51
:100C6000009001DB112301E009F101030AAA01A9A7
:100C70000CA8FFF7E2FEDDE90C70002609F1010582
:100C8000834647E001204B4600904FF000470AAAF8
:100C900001A90CA8FFF7D1FEDDE90DB00C995D4666
:100CA000002610B909F101000D18B9EB050003D4B5
:100CB000C0F1FF3609F10105A5EB09002BE0B9F100
:100CC000010F01DA4FF001090020B9F1110F009076
:100CD000484601DD112300E003460AAA01A90CA839
:100CE000FFF7ABFEDDE90C704D4600268346207809
:100CF00000070AD4AB4500DA5D4601A8012D04DDEA
:100D0000411911F8011C302907D04F4502DA17F1BB
:100D1000040F04DA012082460FE06D1EEEE7002F7B
:100D200002DCED1B3E4403E0781CA84200DD7D1C84
:100D3000B81B00F1010A4FF000472078000703D4E8
:100D4000AA4501DB4FF0FF3A0021B7F1004F0DF14A
:100D500043088DF8431024D002202B23002F01DA02
:100D60007F422D230A21021EA0F1010000DC5FB1A9
:100D700097FBF1FC97FBF1F201FB1C7C17460CF191
:100D8000300C08F801CDEEE7A8F1010003702188CE
:100D9000090501D5452100E06521A0F1010800F811
:100DA000011C09980FA9A1EB0807FF1D00B1012044
:100DB000411901EBEA70A1693844081A401EA0618C
:100DC0002078C00602D42046FFF7DEFA099828B141
:100DD000D4E901219047206A401C20622078C00697
:100DE00022D52046FFF7D0FA1EE0002E04DBB345E3
:100DF00002DD01A8805D00E03020D4E901219047A8
:100E0000206A401C2062761CAAF101005FEA000AF9
:100E10000AD100F019FAC0680168405CD4E90121E8
:100E20009047206A401C2062281EA5F10105DCDCE9
:100E300007E0D4E9012118F8010B9047206A401C13
:100E40002062381EA7F10107F3DC2046FFF7B2FA53
:100E5000032011B041E600002DE9F04F04460D4695
:100E6000D21D22F0070089B0D0E9009748463946E4
:100E700003F050FA0246F80F01D02D2307E0206856
:100E8000810701D52B2302E0202101EAC0038DF860
:100E900020300BB1012000E00020032A824601D05F
:100EA000072A04DB2946204600F0D2F93FE12078EA
:100EB000800601D40D2500E0E569C7F30A560D2D23
:100EC00049DA00214FEA175B08464FF00000002F77
:100ED00000F4400007DA00EB80004FF4400100EB23
:100EE000D07001EA60008115012901DD4FF0FF316A
:100EF00000224FEA850CBCF1180F06D31346ACF163
:100F000018004FF08052C24003E04FF4801323FAE0
:100F10000CF30CF10C0CBCF1200F04D3ACF1200C41
:100F200009FA0CF001E007FA0CF000294FF0004834
:100F300001DD18B90FE00ED140450CD319EB0209C1
:100F40005F4121B9404502D19F4329EA0209BBEB29
:100F5000175F00D0761C2088000502D57B487844B6
:100F600002E07A487844193808AA302302F80A3097
:100F7000037C0AF10101002E0AF1020A53546A4669
:100F800002DC4FF0300101E04FF031014FF0010879
:100F90008DF8001002D0A6F2FF3603E059EA4701AF
:100FA00000D06B4E002D02DC2178090704D54FF0EC
:100FB00002082E218DF80110C44600210BE0C7F372
:100FC00003433F01C35C491C6D1E02F8083005292C
:100FD00008F1010801DA002DF1DC00210CE000EB42
:100FE0001973491C1B786D1E082902F808304FEA56
:100FF000091908F1010801DA002DF0DC21688B06DF
:1010000002D516E0A8F10108E04505DD02EB080372
:1010100013F8013C302BF5D0B8F1000F09DD02EBDD
:10102000080313F8013C2E2B03D1090701D4A8F1C2
:101030000108002D05DD3E2102F808106D1E08F1A3
:101040000108407C002E02F8080008F1010804DACB
:101050002D20764202F8080002E02B2002F808005A
:101060000A214FF47A70864208F101080BDB96FBE7
:10107000F0F3303302F8083096FBF0F308F1010882
:1010800000FB136601E0642E0CDB642096FBF0F39A
:10109000303302F8083096FBF0F308F1010800FB4A
:1010A000136601E00A2E06DB96FBF1F0303002F801
:1010B000080008F1010896FBF1F001FB10603030E8
:1010C00002F80800A16908F1010808EB050202EB2B
:1010D0000A00081AA0612078C00602D42046FFF753
:1010E00053F9216A08AE01EB0A00206204E0D4E95A
:1010F000012116F8010B9047BAF1010AF7D22078C6
:10110000C00602D52046FFF73FF96E4609E016F803
:10111000010B3E280FD0D4E901219047206A401CE2
:101120002062B8F10108F2D22046FFF743F909B076
:101130000320BDE8F08F206A2844206203E0D4E950
:101140000121302090476D1EEBD3F8E726350000D3
:1011500002FCFFFF10B5436913B1AFF3008001E05B
:10116000FFF74BF9012010BD127800F124010A703D
:1011700000224A700122EDE711684FF0FF32E9E7E3
:1011800010B5436913B1AFF3008001E0FFF7D4F964
:10119000012010BD128800F1240182840022C28443
:1011A0000122EDE711684FF0FF32E9E770B516460E
:1011B0000C46054600F040F8036893F80101012849
:1011C00006D0FF2C0FD8185D68B101202C7070BDBF
:1011D000D3F807013246214603F207130344284699
:1011E000BDE8704018474FF0FF3070BD754600F005
:1011F000EBF8AE4605006946534620F007008546E9
:1012000018B020B5FFF746F8BDE820404FF00006C3
:101210004FF000074FF000084FF0000B21F00701DE
:10122000AC46ACE8C009ACE8C009ACE8C009ACE821
:10123000C0098D467047000010B500F005F8001D8C
:1012400010BD00BF9131000000487047C807002062
:101250002DE9F0411F46044603260168072A01F4E0
:10126000006004DB08B116A505E016A503E008B18F
:1012700015A500E015A521F010002060A069C01E92
:10128000A0610FB1401EA0612046FFF77DF84FB16D
:10129000D4E9012138469047206A401C2062C01CD6
:1012A000206206E0206AFAE7D4E9012115F8010B73
:1012B0009047761EF8D22046FFF77CF8BDE8F08113
:1012C0004E414E006E616E00494E4600696E6600EA
:1012D0002DE9F047814616468AB0354878440DC856
:1012E0008DE80D0032487844801C03AC0DC884E8BA
:1012F0000D0041F69B300844372190FBF1F290FB42
:10130000F1F5A5F1800501FB12041B3C02D56442F6
:10131000012000E00020DFF898A080460027FA4472
:10132000AAF1BE0A0EE0E0070AD03246684607EB93
:10133000470101230AEB810100F022FB8DE8070041
:1013400064107F1C002CEED1194F7F44AE3F19E092
:10135000E80715D007EB04100DF1180A90E80E000D
:101360008AE80E00C068F04201D198190890324610
:10137000012306A903A800F003FB03AB83E80700E1
:101380006D10641C002DE3D14FF001033246694615
:10139000B8F1000F03A802D000F0DDFA01E000F080
:1013A000EFFAC9E90001C9F808200AB0BDE8F087E2
:1013B0003832000010B50446AFF300802046BDE887
:1013C0001040FEF752BF000000487047A8070020F9
:1013D0004FF0013C50F8042B51F8043B9A4221D1C4
:1013E000A2EB0C03934313EACC1317D150F8042B50
:1013F00051F8043B9A4215D1A2EB0C03934313EA34
:10140000CC130BD150F8042B51F8043B9A4209D16C
:10141000A2EB0C03934313EACC13DBD04FF0000094
:10142000704700BFD01A01BAB1FA81F101F018017A
:1014300022FA01F0CB40C1F12001DBB2C0B2C01AE8
:101440002CFA01F3D11A914311EAC311E6D1704786
:1014500001491820ABBEFEE72600020070475FEA94
:10146000400C08BF91F0000F4FEA8C234FEAC122D5
:1014700043EA51514FEA1C5018BF00F5F0404FEAC3
:10148000300018BF41F000415FEA6C5C00F0298039
:10149000BCF1FF3F08BF40F080407047130C06BF0F
:1014A00012044FF0100C4FF0000C130E04BF120288
:1014B0000CF1080C130F04BF12010CF1040C930F74
:1014C00004BF92000CF1020CD30F04BF52000CF1C8
:1014D000010C11464FF00002A0F11F00A0EB0C0020
:1014E000704711F0004F08BF704731F000413FF4E2
:1014F000D5AF0B0C06BF09044FF0100C4FF0000CD9
:101500000B0E04BF09020CF1080C0B0F04BF0901FC
:101510000CF1040C8B0F04BF89000CF1020CCB0FF3
:1015200004BF49000CF1010CCCF12003A0EB0C002E
:1015300022FA03F302FA0CF241EA030100F101007E
:10154000704720F07F4C80EA030023F07F47ACEB2C
:10155000070303F57C5300F0004003F1FF032DE97E
:1015600080494FEA154B09B44FEA144325EA0B4E64
:1015700024EA03480FF2042606EB132749083E78B5
:101580005FEA320203FB0667C7F5000707FB06F6B2
:101590004FEA54374FEAD64606F1020607FB066CBF
:1015A000CCF1005C4FEA1C472CEA074C07FB06F421
:1015B0000CFB06F504EB15464FEA961634BF0020E7
:1015C0004FF000404FEAD13706FB07FC4FEA1C4CB6
:1015D0000CFB0BF7D21B03FB0CF761EB07010CFBB9
:1015E0000EF7B0EB074072EB17420CFB08F734BF65
:1015F000A2EB0742B2EB074261EB17414FEA0C4402
:101600004FEA910706FB07FC4FEA1C4C0CFB0BF75B
:10161000B0EBC74072EB573203FB0CF734BFA2EBC1
:10162000C742B2EBC74261EB57310CFB0EF7B0EB90
:10163000C70072EB57720CFB08F734BFA2EBC7026E
:10164000B2EBC70261EB5771039F4FEA816141EA38
:10165000921104EBCC044FEAD1374FEA826206FBC9
:1016600007FC42EA90124FEA80604FEA1C4C0CFBE8
:101670000BF7D21B03FB0CF761EB07010CFB0EF71A
:10168000B0EB074072EB17420CFB08F734BFA2EB3C
:101690000742B2EB074261EB17414FEA8C554FEA24
:1016A000910704EB9C2406FB07FC4FEA1C4C0CFB47
:1016B0000BF7B0EBC74072EB573203FB0CF734BFAC
:1016C000A2EBC742B2EBC74261EB57310CFB0EF7FE
:1016D000B0EBC70072EB57720CFB08F734BFA2EBFC
:1016E000C702B2EBC70261EB577115EB4C254FEA0D
:1016F000816141EA92114FEA82624FEAD13742EAB0
:10170000901206FB07FC44F100044FEA80604FEAA8
:101710001C4C0CFB0BF7D21B03FB0CF761EB070116
:101720000CFB0EF7B0EB074072EB17420CFB08F70F
:1017300034BFA2EB0742B2EB074261EB174115EB56
:101740001C154FEA813141EA92414FEA823242EA66
:1017500090424FEA80304FEA0C7644F1000448EAA8
:1017600003434EEA0B484FF0000EB2EB080C71EB4E
:10177000030724BF624639464EEB0E0E4FF0000BB6
:101780000018524149414BEB0B0BB2EB080C71EBCB
:1017900003077BF1000B24BF624639464EEB0E0E69
:1017A0004FF0000B0018524149414BEB0B0BB2EBD1
:1017B000080C71EB03077BF1000B24BF624639462E
:1017C0004EEB0E0E51EA020718BF46F0010616EB6B
:1017D0000E7655F1000254F1000103D5BDE88901F0
:1017E000BDE80088BDE88901BDE80048B61952414E
:1017F00041EB0101A3F10103704780807F7E7D7C76
:101800007B7A7978777676757473727171706F6E92
:101810006E6D6C6C6B6A6A6968686766666564643D
:10182000636362616160605F5F5E5E5D5D5C5C5BC7
:101830005B5A5A5959585857575656555555545436
:10184000535352525251515050504F4F4F4E4E4D94
:101850004D4D4C4C4C4B4B4B4A4A4A4949494848E0
:101860004847474747464646454545444444444320
:1018700043434342424242414141002B9C4630D4C3
:1018800077002BD01CB54FEA370703B44FF0100098
:101890004FF01001BAF1000F06D0BCF1000FDCBF11
:1018A00040F0080040F008014FF000000FBCBDE818
:1018B00010400BF1010BBBF1010F08BF5FEA1707E6
:1018C00022BF12F1010211F101014FF0004143F179
:1018D000000300F0004043EA00007047F9D35708C6
:1018E000D0E746EA064613F1400F4FEA16461FDDE1
:1018F00013F1200FDFBF16430A46002120335B425D
:10190000BED0C3F1200746EA064602FA07F74FEABF
:10191000164646EA0706C3F1200722FA03F201FA47
:1019200007F721FA03F14FF0000342EA0702A7E7A5
:1019300046EA020646EA06464FEA164646EA010627
:10194000BCBF46EA0646360C4FF000034FF00002DB
:101950004FF0000194E72DE9804C9A46934670B40D
:1019600091E8380007C831EA400C48BF34EA430C1C
:1019700003D5FFF7E6FDFFF780FFF0BCBDE8008C64
:101980002DE9804C9A46934670B491E8380007C818
:1019900010F0804F08BF13F0804F03D100F005F81E
:1019A000FFF76BFFF0BCBDE8008C20F07F4780EABA
:1019B000030023F07F4C07EB0C03A3F57C5300F0EE
:1019C0000040A3F1FE0392F0000F00F0B38095F009
:1019D000000F00F077802DE901494FEA11404FEAEE
:1019E000144621EA004800FB06FC24EA064708FBEF
:1019F00006F607FB08F800FB07F718EB06484CEB68
:101A0000164C4FEA124B18EB07484FEA15464CEBC1
:101A1000174022EA0B4E0BFB06FC25EA06470EFB9D
:101A200006F607FB0EFE0BFB07F71EEB064E4CEB14
:101A3000164C4FF000061EEB074E4CEB174B18EB05
:101A40000B0840F1000018EB0E0B58EB000840F1BA
:101A500000008F1A4FF000013CBFC943661B14BF42
:101A6000B5EB040C00213CBFC943F61B4FEA1744F9
:101A70004EEA8E0E27EA04454FEA1C4704FB076234
:101A80002CEA074C05FB07F70CFB05F604FB0CFCE6
:101A900016EB074642EB174216EB0C4642EB1C4294
:101AA0001BEB060658EB0202414146EA9E0601D5B1
:101AB000BDE80189B619524141EB0101A3F10103CF
:101AC000BDE801894FEA14454FEA114724EA05466B
:101AD00021EA074C05FB07F406FB07F70CFB06F1B0
:101AE00005FB0CFC11EB074144EB17444FEA12478E
:101AF00011EB0C4144EB1C4422EA074C05FB07F2B6
:101B000006FB07F70CFB06F605FB0CFC16EB07467D
:101B100042EB174216EB0C4642EB1C456A1854F197
:101B2000000148BF7047B619524141EB0101A3F1D2
:101B30000103704795F0000F37D04FEA11424FEA8A
:101B4000144721EA024624EA074C02FB07F106FB90
:101B500007F70CFB06F402FB0CFC14EB074441EB0B
:101B600017414FEA154714EB0C4441EB1C4125EAA1
:101B7000074C02FB07F506FB07F70CFB06F602FB1A
:101B80000CFC16EB074645EB174516EB0C4645EBF0
:101B90001C42121951F1000148BF7047B619524159
:101BA00041EB0101A3F1010370474FEA14454FEAED
:101BB000114724EA054621EA074C05FB07F106FB1D
:101BC00007F70CFB06F24FF0000605FB0CFC12EBCE
:101BD000074241EB174112EB0C4251EB1C4148BF4D
:101BE0007047921841EB0101A3F101037047000017
:101BF00010B5044800F088FFBDE8104002A002F0D4
:101C000073BB00005C00002044454255475F707282
:101C1000696E74665B4150505D3AE7B3BBE7BB9FAA
:101C2000E5889DE5A78BE58C96E5AE8CE688907EF1
:101C30000D0A000010B502A002F056FB10BD000016
:101C400044454255475F7072696E74665B415050FF
:101C50005D3AE7B3BBE7BB9FE5889DE5A78BE58CC5
:101C600096E5AE8CE688907E0D0A0000FEE7000047
:101C7000014800F0EFB80000E0020020014800F049
:101C8000E9B800009C02002030B590F840500124D3
:101C9000AC40C56B6C60046863604368102B0368DC
:101CA00003D099600068C26030BD9A600068C1606E
:101CB00030BD704710B54FF4806000F067FA4FF404
:101CC000006000F063FA4FF4805000F05FFABDE866
:101CD00010404FF4004000F059BA72B6FEE710B55C
:101CE00090F821100022022905D00421816380F898
:101CF0002020012010BD01680B6823F00E030B604B
:101D000001680B6823F001030B6090F84030C46B4E
:101D1000012101FA03F3636080F8211080F820208C
:101D2000104610BD2DE9F05F90F821100024022923
:101D300003D004218163012485E001680A6822F050
:101D40000E020A6001680A6822F001020A603F4E32
:101D50003E4FB215DFF8F4C0DFF8F090DFF8ECA0EA
:101D6000DFF8E8B0DFF8E4E00168783F130115021E
:101D7000ACF1640CA9F15009AAF13C0AABF1280BB3
:101D8000AEF1140E4FF48018B14227D9B9420ED0EB
:101D9000614512D049451DD0514518D0594518D03C
:101DA000714501D1424615E0294EB14201D10122CF
:101DB00010E0274E1436B14201D110220AE0244E21
:101DC0002836B14206D0224A3C32914201D11A460D
:101DD00000E02A461E49091F0A602BE0B94213D0D1
:101DE000614517D0494522D051451DD059451DD0D8
:101DF000714501D142461AE0B14202D14FF08072E2
:101E000015E0134EB14201D1012210E0104E1436FC
:101E1000B14201D110220AE00D4E2836B14206D05F
:101E20000B4A3C32914201D11A4600E02A4607494A
:101E300080394A60012180F82110002180F82010AB
:101E4000416B01B188472046BDE8F09F8000024009
:101E5000080402402DE9F05FC16B0A6801680B6855
:101E6000046C4FF0040808FA04F8844D844E854F42
:101E7000DFF814C2DFF81492DFF814A2DFF814B20E
:101E8000DFF814E218EA020F65D05FEA437862D502
:101E90000A68920603D40A6822F004020A60DFF896
:101EA000F0814FF48062016808F1140813011402F4
:101EB000414524D9A9420DD0B1420FD0B9421AD020
:101EC000614515D0494515D0514501D1120312E0A5
:101ED000594501D104220EE0714501D140220AE0AA
:101EE0006D4D1435A94206D06B4A2832914201D17A
:101EF0001A4600E022466749091F0A6029E0A94204
:101F000013D0B14215D0B94220D061451BD049450C
:101F10001BD0514502D14FF4800217E0414502D158
:101F20004FF0806212E0594501D104220EE0714564
:101F300001D140220AE0584D1435A94206D0564A34
:101F40002832914201D11A4600E022464B49083915
:101F50004A60C16A71E04FF0020808FA04F818EA12
:101F6000020F70D05FEA83786DD50A68920606D4B6
:101F70000A6822F00A020A60012180F82110DFF8C5
:101F800010814FF40072016808F114081301140263
:101F9000414524D9A9420DD0B1420FD0B9421AD03F
:101FA000614515D0494515D0514501D1120312E0C4
:101FB000594501D102220EE0714501D120220AE0EB
:101FC000354D1435A94206D0334A2832914201D109
:101FD0001A4600E022462F49091F0A6029E0A9425B
:101FE00013D0B14215D0B94220D061451BD049452C
:101FF0001BD0514502D14FF4001217E0414502D1E8
:102000004FF0007212E0594501D102220EE07145F5
:1020100001D120220AE0204D1435A94206D01E4AE3
:102020002832914201D11A4600E02246134908396C
:102030004A60002180F82010816A00291CD0BDE888
:10204000F05F0847FFE70825A540154214D01A079E
:1020500012D50A6822F00E020A6090F84020C36B85
:10206000012101FA02F25A60816380F821100021F7
:1020700080F82010016BE0E7BDE8F09F0800024007
:102080001C00024030000240440002405800024060
:102090006C000240080402401C04024030B560B1EC
:1020A0001A4B026814219A4209D2194B1344B3FB0C
:1020B000F1F18900016417490AE0012030BD134B9A
:1020C0005B421344B3FBF1F1890001640F49083905
:1020D000C163022180F82110136843F6F0718B432D
:1020E000F0E901142143D0E902452C43214304695E
:1020F000214344692143846921431943116000212C
:102100004163012242770177084630BD080402404E
:10211000F8FFFDBF0000024070B5044690F82000B3
:10212000002501280CD0012084F8200094F82160BB
:102130000020012E06D084F820000225284670BD1C
:10214000022070BD022684F82160A0632068066822
:1021500026F0010606602046FFF796FDE06A00289B
:102160002068016802D041F00E0106E021F0040170
:1021700001602068016841F00A010160206801687F
:1021800041F001010160D9E770470000044910B532
:102190000A68024202D00860FFF7F6FF10BD000097
:1021A000140401402DE9F84FDFF8C8910024A9F18B
:1021B000040B23460F2709F1040AABF1040ED1E00A
:1021C0000125A54006EA0502AA4276D1DFF8A8C19A
:1021D0004E68A6EB0C0866452BD00DDC032E34D0E0
:1021E00005DC36B3012E19D0022E2FD11BE0112EA3
:1021F00016D0122E2AD119E0B8F5881F19D006DCA6
:10220000B8F5803F15D0B8F5801F1FD111E0B8F5A3
:10221000001F0ED0B8F5041F18D10AE0CB6815E0F6
:10222000CB681B1D12E0CB6808330FE0CB680C3382
:102230000CE08B682BB1012B4FF0080303D04561F4
:1022400004E0042302E0056100E00023FF2A01D836
:10225000064601E000F104064FEA840501D9A5F124
:102260002005D6F8008007FA05FC28EA0C0803FAD6
:1022700005F548EA0508C6F800804D68ED0070D500
:102280003E4DAE6946F00106AE61AD6924F003062D
:1022900005F0010500953A4D06EB050CDCF80850F9
:1022A000A607360F07FA06F825EA0805DFF8D480F6
:1022B000404503D14FF0000825E052E0DFF8C88028
:1022C000404502D14FF001081DE0DFF8C0804045D5
:1022D00002D14FF0020816E0DFF8B480404502D189
:1022E0004FF003080FE0DFF8AC80404502D14FF01B
:1022F000040808E0DFF8A080404502D14FF005084F
:1023000001E04FF0060808FA06F848EA0508CCF89C
:1023100008804D68D9F80060ED024D4601D516439E
:1023200000E096432E604D68DAF80060AD02554635
:1023300001D5164300E096432E604D68DBF800603F
:10234000AD035D4601D5164300E096432E604D680F
:10235000DEF80060ED03754601D5164300E09643B4
:102360002E60641C0A681646E2407FF429AFBDE87F
:10237000F88F000008040140000011100010024016
:102380000000014000080140000C01400010014025
:102390000014014000180140001C0140C26821EAFD
:1023A00002030A4043EA0241016170470AB1016138
:1023B00070470904FBE7000001488068704700008F
:1023C0000000002002488168027811448160704753
:1023D00000000020074810B5016841F010010160BD
:1023E000032000F075F8002000F006F800F024F853
:1023F000002010BD0020024070B50D4D04464FF482
:102400007A712878B1FBF0F00A490968B1FBF0F065
:1024100000F0DCFA48B9102C07D200222146501EE9
:1024200000F036F800206C6070BD012070BD000027
:10243000000000200C0000200C4808B5816941F024
:1024400001018161816901F001010091C16941F0DF
:102450008051C161C06900F080500090044841681B
:1024600021F0E06141F00071416008BD00100240C0
:1024700000000140002809DB00F01F02012191400B
:102480004009800000F1E020C0F800117047000012
:10249000F0B40E4B1B680C46C3F30223C3F10705CF
:1024A000042D00D90425191D072901D2002300E0BD
:1024B000DB1E012606FA05F1491E214099409E4087
:1024C000761E16403143F0BC01F038BF0CED00E041
:1024D000064900F0070208684FF6FF03184040EA7B
:1024E0000220034A10430860704700000CED00E032
:1024F0000000FA052DE9F0470F46050061D0434E74
:10250000306800F00700B84209D2306820F00700B8
:1025100038433060306800F00700B84251D1286875
:102520003B4C810712D5400703D5606840F4E0605A
:1025300060602878000703D5606840F460506060F0
:102540006068A96820F0F000084360602878C00740
:1025500028D06868012810D02168022810D0890787
:1025600000292EDA616821F0030101436160FFF761
:1025700023FF804641F288390DE021688903EFE7A7
:102580008901EDE7FFF718FFA0EB0801494502D9E3
:102590000320BDE8F0876068696800F00C00B0EBCC
:1025A000810FEFD1306800F00700B8420BD93068D6
:1025B00020F0070038433060306800F00700B84270
:1025C00001D00120E5E72878400705D56068E96873
:1025D00020F4E060084360602878000706D5606852
:1025E000296920F4605040EAC100606000F038F8CA
:1025F0006168084AC1F30311515CC840064908608C
:1026000006480068FFF7F8FE0020C2E700200240FD
:10261000001002401A4400080C00002004000020B2
:102620000448054900684968044AC1F30221515C25
:10263000C84070470C000020001002402A440008E7
:102640000448054900684968044AC1F3C221515C45
:10265000C84070470C000020001002402A440008C7
:102660000E4A51680E4801F00C03042B11D0082BC0
:102670000FD10C48C1F38343C903C05C0AD551682C
:10268000084AC1F34041921E515C054A5043B0FBD9
:10269000F1F07047044948437047000000100240C1
:1026A00000127A000A44000800093D002DE9F84FA5
:1026B000040070D02078C04DC00749D06868C0F3CE
:1026C0008100012807D06868C0F38100022809D181
:1026D0006868C00306D52868800339D5606800287B
:1026E000E7D035E06068B0F5803F0BD010B1B0F5B1
:1026F000A02F11D0286820F480302860286820F4AA
:10270000802002E0286840F480302860606890B142
:10271000FFF752FE06460AE0286840F48020286051
:10272000F0E700BFFFF748FE801B642873D82868D5
:102730008003F7D50CE0FFF73FFE064605E000BF3B
:10274000FFF73AFE801B6428F0D828688003F7D48E
:1027500020789A4E80074FF001094FF0000839D5D4
:10276000686810F00C0F07D06868C0F38100022879
:1027700009D16868C00306D42868800714D5206989
:10278000012808D110E02069B0B1C6F80090FFF729
:1027900013FE074605E00AE1FFF70EFEC01B022804
:1027A000C4D828688007F7D52868616920F0F80048
:1027B00040EAC10028600DE0C6F80080FFF7FCFD8C
:1027C000074604E0FFF7F8FDC01B022823D828685D
:1027D0008007F7D4207800072CD57948A169D9B1B2
:1027E000C0F80090FFF7E8FD074604E0FFF7E4FDBE
:1027F000C01B02280FD8686A8007F7D571484FF4CC
:10280000FA510068B0FBF1F0009000BF0098411E43
:102810000091FAD20EE080E0C0F80080FFF7CCFD16
:10282000074604E0FFF7C8FDC01B022875D8686A98
:102830008007F7D42078400760D5E8690027C000FA
:1028400008D4E86940F08050E861E869012700F0A9
:10285000805000905C480168C90513D40168834624
:1028600041F480710160FFF7A7FD824606E000BFDA
:10287000FFF7A2FDA0EB0A0064284ED8DBF80000A9
:10288000C005F5D5E06801280AD008B1052813D0A5
:10289000286A20F001002862286A20F0040002E083
:1028A000286A40F001002862E06841F2883B98B154
:1028B000FFF782FD82460BE0286A40F004002862A0
:1028C000EEE700BFFFF778FDA0EB0A0159455AD8A3
:1028D000286A8007F6D50CE0FFF76EFD824605E01A
:1028E000FFF76AFDA0EB0A0159454CD8286A80071A
:1028F000F6D41FB1E86920F08050E861E06988B340
:102900006968C1F38101022944D00228C6F86080B9
:1029100004D0FFF751FD044638E034E0FFF74CFDEA
:10292000074604E0FFF748FDC01B02282BD82868A3
:102930008001F7D4206AB0F5803F05D16868A168AE
:1029400020F4003008436860D4E90801084369684E
:1029500021F4741108436860C6F86090FFF72CFDFD
:10296000044606E025E000BFFFF726FD001B022815
:1029700009D828688001F7D51BE000BFFFF71CFDD0
:10298000001B022802D90320BDE8F88F28688001C7
:10299000F4D40EE00128F7D06868226A00F4803190
:1029A000914204D1616A00F47010884201D0012084
:1029B000EAE70020E8E70000001002400000424281
:1029C000800442420C0000200070004010B5401E00
:1029D000B0F1807F01D3012010BD4FF0E024606191
:1029E0000F21601701F0AAFC0020A06107202061E0
:1029F000002010BD7047704770B590F83C20012A48
:102A00002CD0012480F83C40022280F83D2003684D
:102A10005A689D6822F070060A6832435A60104B6B
:102A200002689A420ED00F4B9A420BD0B2F1804FFF
:102A300008D00D4B9A4205D00C4B9A4202D00C4B59
:102A40009A4204D1496825F080031943916080F8C7
:102A50003D40002180F83C10084670BD022070BD4A
:102A6000002C0140003401400004004000080040F8
:102A7000000C004010B5040003D094F83D0010B1E4
:102A800007E0012010BD002084F83C00204600F043
:102A90001FF8022084F83D00211D206801F0C2F8D3
:102AA000012084F8460084F83E0084F83F0084F852
:102AB000400084F8410084F8420084F8430084F820
:102AC000440084F8450084F83D00002010BD00005B
:102AD00008B50068B0F1804F12D10A48C16941F0D1
:102AE0000101C161C069002200F0010000900121D4
:102AF0001C20FFF7CDFCBDE808401C20FFF7BABC46
:102B000008BD00000010024090F83D10012901D0DE
:102B100001207047022180F83D100168CA6842F028
:102B20000102CA6000680E4988420ED00D498842F1
:102B30000BD0B0F1804F08D00B49884205D00B492B
:102B4000884202D00A49884204D1816801F0070115
:102B5000062903D0016841F001010160002070479F
:102B6000002C0140003401400004004000080040F7
:102B7000000C004070B5044690F83C000025012888
:102B800017D0012684F83C60022084F83D002068BC
:102B9000826822F0770222F47F428260086850281F
:102BA00038D00DDC20284FD005DC90B3102811D18F
:102BB0004AE0022070BD302846D040280AD13BE0D0
:102BC00060282FD070280DD0B0F5805F03D0B0F50D
:102BD000005F12D0012584F83D60002084F83C009D
:102BE000284670BDCB68D1E90121206801F060F86A
:102BF0002068816841F0770109E0CB68D1E90121C3
:102C0000206801F055F82068816841F480418160B6
:102C1000E1E719E0CA684968206801F01DF9502110
:102C2000206806E0CA684968206801F026F960213A
:102C3000206801F047F8CEE7CA684968206801F0CB
:102C40000BF940212068F4E7226801461046F0E7BE
:102C50002DE9F0410D46040003D094F83D0018B171
:102C600008E00120BDE8F081002084F83C00204607
:102C700000F040F8022084F83D002068816844F2AA
:102C8000070291438160211D206800F0CBFF22687C
:102C900090689169166A2B68AF69034340F203306C
:102CA000814341EA0721A868EF6908434FF6FC41D8
:102CB0008843E96840EA0720014328692F6A000138
:102CC00040EA0730084369686D6926F0220646EA43
:102CD0000515294393602268906154F8460B016200
:102CE000012004F81F09E0752076E0762077A075B2
:102CF0000020B7E700B585B0002100910191029155
:102D000003911B4A01681B48914215D1816941F426
:102D100000618161816901F400610491816941F080
:102D2000040181618069694600F0040004904FF459
:102D300040700090104816E0104A914215D1816908
:102D400041F400518161816901F40051049181696C
:102D500041F0100181618069694600F01000049023
:102D6000C02000900648FFF71DFA05B000BD000026
:102D7000002C0140001002400008014000340140D6
:102D800000100140704770B50446006801694FF0BB
:102D90000005C943890715D4C168C943890711D4FF
:102DA000E91E0161012020772068806980072046A4
:102DB00002D0FFF7E7FF04E000F0E0F8204600F063
:102DC00085F9257720680169C943490717D4C16887
:102DD000C943490713D46FF0040101610220207731
:102DE0002068806910F4407F204602D0FFF7CAFFB8
:102DF00004E000F0C3F8204600F068F92577206869
:102E00000169C943090716D4C168C943090712D427
:102E10006FF008010161042020772068C0698007F5
:102E2000204602D0FFF7AEFF04E000F0A7F82046EE
:102E300000F04CF9257720680169C943C90617D409
:102E4000C168C943C90613D46FF01001016108209D
:102E500020772068C06910F4407F204602D0FFF739
:102E600091FF04E000F08AF8204600F02FF9257762
:102E700020680169C943C90708D1C168C943C907A6
:102E800004D1891E0161204600F022F92068016901
:102E9000C943090609D4C168C943090605D46FF0BE
:102EA000800101612046FFF7A5FD20680169C94343
:102EB000490609D4C168C943490605D46FF04001E9
:102EC0000161204600F016F920680169C9438906AE
:102ED0000BD4C168C943890607D46FF02001016192
:102EE0002046BDE87040FFF786BD70BD30B585B0A7
:102EF0000021009101910291039102681B49032571
:102F000002241B48B2F1804F22D01A4B9A421DD1A5
:102F10008A6942F004028A618A6902F0040204921A
:102F20008A6942F008028A618969039401F0080104
:102F30000491C021CDE900146946FFF733F9CDE9CA
:102F4000005469460C480394FFF72CF905B030BDD6
:102F50008A6942F004028A618969CDE9005401F06E
:102F60000401CDE903416946EEE70000001002408C
:102F70000008014000040040000C0140704770B59B
:102F8000044690F83C0000260D4601280FD0012091
:102F900084F83C006AB1042A1DD0082A2FD00C2ADC
:102FA0003FD00126002084F83C00304670BD02204E
:102FB00070BD206800F08EFE2068816941F0080134
:102FC00081612068816921F0040181612068816943
:102FD0002A69114311E0206800F0ACFE2068816985
:102FE00041F4006181612068816921F4806181611F
:102FF000206881692A6941EA02218161D2E720685B
:1030000000F0CEFE2068C16941F00801C16120686E
:10301000C16921F00401C1612068C1692A691143B5
:1030200011E0206800F0F0FE2068C16941F4006101
:10303000C1612068C16921F48061C1612068C169F2
:103040002A6941EA0221C161ACE710B5040003D04E
:1030500094F83D0010B107E0012010BD002084F875
:103060003C00204600F01EF8022084F83D00211D9F
:10307000206800F0D7FD012084F8460084F83E0067
:1030800084F83F0084F8400084F8410084F842004E
:1030900084F8430084F8440084F8450084F83D0037
:1030A000002010BD08B500680649884208D10648CE
:1030B000C16941F00201C161C06900F002000090E5
:1030C00008BD0000000400400010024070470000EE
:1030D0000649884208D106490878401CC0B20870E9
:1030E0000A2801D100F024BB704700005C000020DA
:1030F00010000020704738B5044690F842002028A0
:1031000001D0022038BD61B15AB1012020630020F6
:103110006063204601F08CF80028F3D1216B01296F
:1031200001D0012038BD21680A68496800912168F2
:103130000C3151E8002F42F0100241E80023002B2F
:10314000F5D138BD054B02689A4201D100F0C6BEE8
:10315000034B9A4201D100F0ABBE704700380140EA
:1031600000440040054A0168914201D100F09BBE35
:10317000034A914201D100F092BE704700380140ED
:1031800000440040F8B5016804460868CA684B6905
:1031900010F00F0F4FF0000559D003F0010602F4B4
:1031A0009077374365D0C10705D0D10503D5616C51
:1031B00041F001016164410705D5D90703D0616C75
:1031C00041F002016164810705D5D90703D0616C24
:1031D00041F004016164010707D502F02001314389
:1031E00003D0616C41F008016164616C00293AD040
:1031F000800604D5900602D5204600F05BFF2068CB
:103200004069616CC0F38010090700D460B32046A8
:1032100000F01BFF20684069400621D5206814306B
:1032200050E8001F21F0400140E80012002AF5D1CB
:10323000E06BA8B16D494163E06BFEF773FD0028B8
:1032400011D0E06B416B01B0BDE8F0400847830648
:103250000FD593060DD52046BDE8F84000F02ABFF3
:103260002046FFF77FFFF8BD2046FFF77BFF656430
:10327000F8BD266B2023012E7CD1C6067AD5D60652
:1032800078D508684868009048694FF00206400603
:1032900040D5E16B086840680004000CE8D0A28DBE
:1032A0008242E5D9E085886920282DD020680C303D
:1032B00050E8001F21F4807140E80012002AF5D187
:1032C0002068143050E8001F21F0010140E800128E
:1032D000002AF5D12068143050E8001F21F0400189
:1032E00040E80012002AF5D184F8423025632068B6
:1032F0000C3050E8001F21F0100140E80012002AB5
:10330000F5D1E06BFEF7EBFC6663A08DE18D401A12
:1033100081B22AE0A08DE18D401A81B2E08D0028B3
:10332000A6D00029A4D022680C3252E8000F20F465
:10333000907042E80007002FF5D12068143050E863
:10334000002F22F0010240E80027002FF5D184F879
:103350004230256320680C3050E8002F22F0100224
:1033600040E80023002BF5D166632046FFF7EAFE14
:10337000F8BDFFE705062BD5150629D594F84100C1
:103380002128F5D1A068B0F5805F01D12069B0B1E6
:10339000206A411C2162216800784860E08C401E50
:1033A0000004000CE084E3D12068C16821F08001B2
:1033B000C1602068C16841F04001C160D8E7206A5F
:1033C0000088C0F308004860206A801C2062E5E79E
:1033D0004006CDD55006CBD5CA68204622F0400223
:1033E000CA6084F8413000F09FF9C1E7013F00084E
:1033F00070B5040004D094F84100002510B106E037
:10340000012070BD84F84050204600F023F82420AD
:1034100084F841002068C16821F40051C160204651
:1034200000F0AAFE2068016921F490410161206842
:10343000416921F02A0141612068C16841F40051CD
:10344000C1606564202084F8410084F8420065630F
:10345000002070BD2DE9F04786B00024009401944F
:10346000029403940646844F036884480221032291
:10347000834D4FF4806C4FF40069BB421CD1C3698B
:1034800043F40023C361C36903F4002304938369F5
:1034900043F0100383618069CDE900C100F01000A2
:1034A000CDE9032069462846FEF77CFECDE900946D
:1034B00069462846029429E0DFF8C881042743457D
:1034C00029D1C36943F48013C361C36903F4801332
:1034D0000493836943F010038361836903F010034D
:1034E0000493836943F0200383618069039200F0B1
:1034F00020000490B802CDE9000169462846FEF795
:1035000051FECDE9007469465F480294FEF74AFE19
:1035100006B0BDE8F087DFF874815D4D4FF0800A9A
:1035200043452CD1836943F480438361836903F469
:1035300080430493836943F00803836180690392A5
:1035400000F0080004904020CDE9000169462846BB
:10355000FEF728FECDE900A4694628460294FEF74E
:1035600021FE4C48416841F0E06141F004014160B6
:10357000002202212520FEF78BFF252029E0DFF81D
:103580001881434528D1C36943F40033C361C3693B
:1035900003F400330493836943F004038361806977
:1035A000CDE9007100F00400CDE903203B4D6946F0
:1035B0002846FEF7F7FD0820CDE9000469462846B5
:1035C0000294FEF7EFFD002202212620FEF760FFA5
:1035D0002620FEF74FFF9BE7314FBB4298D1C369CE
:1035E00043F48023C361C36903F480230493836994
:1035F00043F0080383618069CDE900C100F0080051
:10360000CDE9032069462846FEF7CCFDCDE90094BC
:10361000694628460294FEF7C5FD234D21485746CA
:10362000C5E90004C5E9024A2C616C61AC61284619
:10363000EC61FEF733FD08B1FEF74FFBF5636E62F8
:10364000194D18484435143801C5102091C5164845
:1036500045F8104944306C61AC61EC61FEF71EFD29
:1036600008B1FEF73AFBB5630022022127206E6203
:10367000FEF70EFF2720ACE7004C00400010024090
:10368000001001400050004000140140003801408B
:10369000000C0140000001400044004000080140CF
:1036A00000480040300002409C02002070477047F4
:1036B00070B5044690F84100202801D0022070BD6A
:1036C00049B342B32162A284E284002060642123D2
:1036D00084F84130A56B114BAB62A56B104BEB62CC
:1036E000A56B104B2B63A36B5863256813462A1DEB
:1036F000A06BFEF711FD21686FF0400008602068A4
:10370000143050E8001F41F0800140E80012002A08
:10371000F5D1002070BD012070BD0000FF3F000802
:1037200041400008113F000870477047FEE7000065
:103730004FF400510148FEF731BE0000000C01407B
:103740000D4808B5416941F001014161406900221D
:1037500000F00100009011460C20FEF799FE0C20AD
:10376000FEF788FE002211460D20FEF791FEBDE80F
:1037700008400D20FEF77EBE001002402DE9F04704
:1037800086B0002436480094019402940394816921
:1037900041F010018161816901F01001049181699A
:1037A00041F020018161816901F02001049181696A
:1037B00041F004018161816901F004010491816992
:1037C00041F0080181618069DFF8988000F008000D
:1037D0004FF460450490002229464046FEF7E6FD7E
:1037E000DFF884A0002230215046FEF7DFFDDFF82D
:1037F0007C904FF46347002239464846FEF7D6FDD9
:103800000095022601250396CDE9015469464046FC
:10381000FEF7C8FC3020CDE90005CDE90246694637
:103820005046FEF7BFFC00970396CDE90154694668
:103830004846FEF7B7FC4FF41C4000900C48CDE919
:10384000010469465046FEF7ADFC00220121282004
:10385000FEF71EFE2820FEF70DFE06B0BDE8F0873D
:10386000001002400010014000080140000C01401F
:103870000000111010B58CB024216846FCF75AFDE9
:1038800000241648099414490A94C0E900144FF61C
:10389000FF71C0E902410461446184610120CDE906
:1038A0000004CDE902040494CDE90540079469467B
:1038B0000A480894FFF7CCF908B1FEF70EFA09940C
:1038C00009A906480A94FFF797F8002801D0FEF7E7
:1038D00004FA0CB010BD0000002C014014000020C0
:1038E00010B58EB000240794089409940A940B94A0
:1038F0001C2168460C94FCF71DFD22484FF08041C6
:10390000016040F2CF21C0E901146321C0E9031432
:1039100080218161FFF7AEF808B1FEF7DEF94FF4C0
:103920008050079007A91748FFF724F908B1FEF760
:10393000D4F91448FFF789FB08B1FEF7CEF90B94D0
:103940000BA910480C94FFF757F808B1FEF7C5F91A
:103950006020CDE9000402940022694609480494DD
:10396000FFF70DFB08B1FEF7B8F9042269460548D8
:10397000FFF705FB08B1FEF7B0F90248FFF7B6FA0A
:103980000EB010BD5C00002010B58AB00024079472
:103990001C2168460894FCF7CDFC224820490160B0
:1039A0004721C0E9011444F61F61C0E90314846192
:1039B000FFF74BFB08B1FEF790F9079407A91948E8
:1039C0000894FFF719F808B1FEF787F96020CDE9F0
:1039D000000402940022694612480494FFF7CFFACB
:1039E00008B1FEF77AF9042269460E48FFF7C7FAD4
:1039F00008B1FEF772F9082269460A48FFF7BFFAD4
:103A000008B1FEF76AF90C2269460648FFF7B7FAD3
:103A100008B1FEF762F90348FFF768FA0AB010BD73
:103A200000040040A400002010B58CB0242168469A
:103A3000FCF780FC00241648099414490A94C0E954
:103A400000144FF6FF71C0E90241046144618461D2
:103A50000120CDE90004CDE902040494CDE905403C
:103A6000079469460A480894FFF7F2F808B1FEF790
:103A700034F9099409A906480A94FEF7BDFF002805
:103A800001D0FEF72AF90CB010BD0000003401404F
:103A9000EC0000200C4810B50A4901604FF4E131F8
:103AA0004160002181600C22C160C0E90412816183
:103AB000C161FFF79DFC002803D0BDE81040FEF770
:103AC0000CB910BD004C0040340100200C4810B56A
:103AD0000A4901604FF4E1314160002181600C220C
:103AE000C160C0E904128161C161FFF781FC002857
:103AF00003D0BDE81040FEF7F0B810BD0050004004
:103B00007C0100200C4810B50A4901604FF4E131F6
:103B10004160002181600C22C160C0E90412816112
:103B2000C161FFF765FC002803D0BDE81040FEF737
:103B3000D4B810BD00380140C40100200C4810B5B5
:103B40000A4901604FF4E1314160002181600C229B
:103B5000C160C0E904128161C161FFF749FC00281E
:103B600003D0BDE81040FEF7B8B810BD00440040D7
:103B70000C0200200C4810B50A4901604FF4E131F5
:103B80004160002181600C22C160C0E904128161A2
:103B9000C161FFF72DFC002803D0BDE81040FEF7FF
:103BA0009CB810BD0048004054020020FEE7FEE72C
:103BB00070477047FEF706BC30B58FB028216846C5
:103BC000FCF7B8FB14210AA8FCF7B4FB0121080498
:103BD000CDE900100024029402250491CDE907509C
:103BE0004FF4E01009906846FEF760FD08B172B628
:103BF000FEE70F20CDE90A054FF48060CDE90C40C7
:103C000002210AA80E94FEF775FC002801D072B6B6
:103C1000FEE70FB030BD70470148FFF7B4B80000B1
:103C20005C000020F0B502681C4B1D4D1D4E1E4F60
:103C30001E4C4FF0804C984209D0A04207D06045FE
:103C400005D0A84203D0B04201D0B84204D122F03E
:103C5000700E4A6842EA0E02984209D0A04207D08C
:103C6000604505D0A84203D0B04201D0B84203D18C
:103C700022F44075CA682A434D6922F080022A4323
:103C800002608A68C2620A688262984201D0A042D9
:103C900001D10969016301214161F0BD002C01409E
:103CA0000004004000080040000C004000340140C7
:103CB00010B5846842EA032224F47F440A43224375
:103CC000826010BD826822F070020A4342F0070150
:103CD00081607047F0B5036A026A22F00102026255
:103CE00042688469124E24F073050C682C4323F05B
:103CF00002058B682B430D4DA84201D0B04205D17F
:103D000023F00807CB683B4323F00403A84201D00B
:103D1000B04205D14D6922F4407215438A692A43A5
:103D200042608461496841630362F0BD002C014038
:103D300000340140F0B5026A036A23F01003036205
:103D4000436884690D6824F4E64444EA05248D68D8
:103D500022F0200242EA05120F4D104EA84201D077
:103D6000B04206D1CF6822F0800242EA071222F068
:103D70004002A84201D0B04207D14D6923F440630C
:103D800043EA85038D6943EA85034360846149689A
:103D900081630262F0BD0000002C0140003401404C
:103DA000F0B5026A036A23F4807303624368C4694E
:103DB00022F4007224F073050C68124E2C438D68B7
:103DC00042EA05220E4DA84201D0B04206D1CF688A
:103DD00022F4006242EA072222F48062A84201D063
:103DE000B04207D14D6923F4405343EA05138D696E
:103DF00043EA05134360C4614968C1630262F0BDD0
:103E0000002C01400034014030B5046A026A22F4FB
:103E1000805202624268C3690D6823F4E64343EAB4
:103E200005238D6824F4005444EA0534084DA84263
:103E300002D0084DA84204D14D6922F4804242EAE2
:103E400085124260C36149680164046230BD0000AC
:103E5000002C01400034014010B5036A046A24F0CC
:103E600001040462846924F0F00444EA021423F09B
:103E70000A020A438461026210BD10B5036A046A33
:103E800024F010040462846923F0A00324F4704435
:103E900044EA023243EA01118261016210BD006806
:103EA000016840687047006801684068704700001A
:103EB000074910B501F51170FCF718FA0549012002
:103EC00002024870BDE8104001490348FFF713B9EA
:103ED00024050020110000200C02002010B50A4625
:103EE00005490648FFF7E4FBBDE810404FF4807237
:103EF00001490248FFF7FFB82403002054020020C4
:103F000010B5406A0021C185C184FFF72BF910BDAF
:103F100070B5446A2068406994F84110C0F3C0103D
:103F20000025212904D118B1E584204600F0B4F819
:103F30002068406994F84210C0F38010222904D10F
:103F400018B1E585204600F080F8606C40F0100064
:103F500060642046FFF706F970BD10B50146406A5F
:103F6000096809684FF0000289062ED4C2850168ED
:103F70000C3151E8003F23F4807341E80034002CF9
:103F8000F5D10168143151E8003F23F0010341E805
:103F90000034002CF5D10168143151E8003F23F0C2
:103FA000400341E80034002CF5D1202180F8421074
:103FB000016B012909D101680C3151E8003F23F060
:103FC000100341E80034002CF5D14263016B012954
:103FD00002D0FFF76BFB10BD818DFFF7B3F810BD6A
:103FE00010B5406A01214163016B012902D0FFF73E
:103FF0005EFB10BD818D4908FFF7A4F810BD10B518
:104000000146406A09680968890616D40021C184FE
:104010000168143151E8002F22F0800241E80023AA
:10402000002BF5D101680C3151E8002F42F040021D
:1040300041E80023002BF5D110BDFFF775FB10BD43
:1040400010B5406AFFF771FB10BD01680C3151E8F3
:10405000002F22F4907241E80023002BF5D1016873
:10406000143151E8002F22F0010241E80023002B17
:10407000F5D1016B012909D101680C3151E8002FFC
:1040800022F0100241E80023002BF5D1202180F816
:10409000421000210163704701680C3151E8002F84
:1040A00022F0C00241E80023002BF5D1202180F846
:1040B0004110704708B590F84210222901D0022023
:1040C00008BD82684FF480539A4201D1016921B141
:1040D000816A9A421BD04AB10AE00268816A52683A
:1040E000C2F308020A80816A891C08E0026972B181
:1040F0000268526802F07F020A70816A491C81627C
:10410000C18D491E0904090CC18503D01BE002685A
:104110005268F1E70168CA6822F02002CA600168AB
:10412000CA6822F48072CA6001684A6922F00102FA
:104130004A61202180F8421000214163026B012A6C
:1041400003D0FFF7B3FA002008BD016301680C310A
:1041500051E8002F22F0100241E80023002BF5D196
:1041600001680A68D20602D50A6849680091818D03
:10417000FEF7E8FFE7E7000070B504460068016954
:10418000E26821F44051114301612169A0680843AC
:10419000616908432168CA6841F20C639A4302438B
:1041A000CA6020684169A26921F4407111434161EC
:1041B0001E492068884202D1FEF742FA01E0FEF76C
:1041C0002FFA00EBC00101EB00126068642180004F
:1041D000B2FBF0F3B3FBF1F36FF018067343B2FBDD
:1041E000F0F5B2FBF0F605EB8305322303EB051582
:1041F000B5FBF1F5B6FBF1F605F0F00505EB06159C
:10420000B2FBF0F6B2FBF0F0B0FBF1F06FF0180289
:10421000504306EB800003EB0010B0FBF1F0216887
:1042200000F00F002844886070BD00000038014095
:1042300038B58162044682850020134660642222DC
:1042400084F84220E56B1B4AAA62E56B1A4AEA62CF
:10425000E56B1A4A2A63E26B50630A462168E06BF9
:10426000091DFDF759FF206801684068009020692A
:1042700048B120680C3050E8001F41F4807140E8DC
:104280000012002AF5D12068143050E8001F41F0D8
:10429000010140E80012002AF5D12068143050E8EE
:1042A000001F41F0400140E80012002AF5D1002033
:1042B00038BD00005B3F0008E13F0008113F0008E7
:1042C0000148FEF75FBF0000C40100200148FEF76F
:1042D00059BF00000C0200200148FEF753BF000048
:1042E00054020020FEE700000FB440F2011110B5A7
:1042F00003AB0648029AFBF7DFFF82B2034904488A
:10430000FFF7D6F910BC5DF814FB00002404002070
:1043100054020020490050EAC12018BF04204A0D71
:1043200018BF40F0010040F2FF72B2EB515F08BFCE
:1043300040F00200012808BF052070470907090E58
:10434000002804DB00F1E02080F80014704700F042
:104350000F0000F1E02080F8141D704730380A2863
:1043600001D20120704700207047FEF733F8FFF7B5
:1043700023FCFFF703FAFFF7E3F9FFF77BFAFFF7F8
:10438000AFFAFFF701FBFFF74FFBFFF783FBFFF7E8
:104390009DFBFFF7B7FBFFF7D1FBFFF7EBFBFDF74B
:1043A00027FCFDF747FCFCE710B500290AD0087888
:1043B000002807D005487844FDF70AF8002801D006
:1043C000002010BD0248784410BD00009A01000092
:1043D0009201000010B500290AD00878002807D003
:1043E00005487844FCF7F4FF002801D0002010BDF8
:1043F0000248784410BD00008A01000082010000DC
:10440000FCF7F3BBFCF728BD010202030405060715
:1044100008090A0B0C0D0E0F101000000000000020
:104420000000010203040607080900000000010261
:1044300003040000000000000000000030313233AF
:1044400034353637383941424344454640305800C8
:1044500030313233343536373839616263646566FA
:104460004030780004000008000000000000000256
:1044700000010000103031323334353637383961BD
:1044800062636465667870003031323334353637B4
:10449000383941424344454658500000024000002C
:1044A000000000A00000000005400000000000C85F
:1044B000000000000C4000000000409C00000000D4
:1044C000194000000020BCBE000000003440000085
:1044D000BFC91B8E00000004B5400000504BCFD078
:1044E0006607E2CF010000006C4100003E8251AA45
:1044F000DFEEA73401000000D9420000DCB5A0E2E5
:104500003A301F97FFFFFFFFB4450000FD25A0C80C
:10451000E9A3C14FFFFFFFFFFF3F00000000008045
:1045200000000000FF3F00000000008000000000CD
:104530007C46000800000020140000006C01000808
:104540009046000814000020F40D000088010008C7
:104550001C00000043000000F8FFFFFF0C000000FB
:104560000E0000000F0000002E00000010010000EF
:1045700043000000F8FFFFFF004040404040404043
:104580004040414141414140404040404040404026
:1045900040404040404040404005020202020202CA
:1045A0000202020202020202022020202020202019
:1045B000202020020202020202029090909090902D
:1045C00010101010101010101010101010101010EB
:1045D000101010100202020202028888888888885F
:1045E000080808080808080808080808080808084B
:1045F0000808080802020202400000000000000053
:1046000000000000000000000000000000000000AA
:10461000000000000000000000000000000000009A
:10462000000000000000000000000000000000008A
:10463000000000000000000000000000000000007A
:10464000000000000000000000000000000000006A
:10465000000000000000000000000000000000005A
:10466000000000000000000000000000000000004A
:104670000000000000000000000000000100000039
:1046800010000000000000000024F4000000000002
:0400000508000131BD
:00000001FF
