:020000040800F2
:1000000088090020CD01000887200008051C000891
:1000100085200008E30200087525000800000000A4
:100020000000000000000000000000008B2000081D
:10003000FD02000800000000892000088D20000853
:10004000E7010008E7010008E7010008E7010008F0
:10005000E7010008E7010008E7010008E7010008E0
:10006000E7010008E7010008E7010008E7010008D0
:10007000E5020008F1020008E7010008E7010008B6
:10008000E7010008E7010008E7010008E7010008B0
:10009000E7010008E7010008E7010008E7010008A0
:1000A000E7010008E7010008E7010008E701000890
:1000B000F1200008E7010008E7010008E701000857
:1000C000E7010008E7010008E7010008E701000870
:1000D000E7010008512500085D2500086925000892
:1000E000FF020008E7010008E7010008E701000837
:1000F000E7010008E7010008E7010008E701000840
:10010000E7010008E7010008E7010008E70100082F
:10011000E7010008E7010008E7010008E70100081F
:10012000E7010008E7010008E7010008E70100080F
:1001300000F002F800F03AF80AA090E8000C8244BF
:100140008344AAF10107DA4501D100F02FF8AFF29C
:10015000090EBAE80F0013F0010F18BFFB1A43F0A5
:10016000010318479C240000BC240000103A24BF5F
:1001700078C878C1FAD8520724BF30C830C144BF0C
:1001800004680C607047000000230024002500264E
:10019000103A28BF78C1FBD8520728BF30C148BFEA
:1001A0000B6070471FB51FBD10B510BD00F058F8AB
:1001B0001146FFF7F7FF02F0EEF900F076F803B40E
:1001C000FFF7F2FF03BC00F07DF80000094880470C
:1001D00009480047FEE7FEE7FEE7FEE7FEE7FEE729
:1001E000FEE7FEE7FEE7FEE704480549054A064B41
:1001F00070470000EF20000831010008880300204C
:100200008809002088050020880500204FF00002A2
:1002100000B5134694469646203922BFA0E80C50FC
:10022000A0E80C50B1F12001BFF4F7AF090728BFD7
:10023000A0E80C5048BF0CC05DF804EB890028BF53
:1002400040F8042B08BF704748BF20F8022B11F07C
:10025000804F18BF00F8012B7047704770477047F8
:10026000754600F02BF8AE4605006946534620F06F
:100270000700854618B020B5FFF7B6FFBDE820405F
:100280004FF000064FF000074FF000084FF0000B52
:1002900021F00701AC46ACE8C009ACE8C009ACE805
:1002A000C009ACE8C0098D46704710B50446AFF3ED
:1002B00000802046BDE81040FFF781BF004870472E
:1002C0002403002001491820ABBEFEE726000200EF
:1002D00070470000014800F005BF00005C000020EE
:1002E0007047FEE7014800F0DBB80000E0020020A4
:1002F000014800F0D5B800009C020020704710B5FE
:100300004FF4806000F030FA4FF4006000F02CFAF7
:100310004FF4805000F028FABDE810404FF4004040
:1003200000F022BA72B6FEE710B590F82110002254
:10033000022905D00421816380F82020012010BD0E
:1003400001680B6823F00E030B6001680B6823F053
:1003500001030B6090F84030C46B012101FA03F3F4
:10036000636080F8211080F82020104610BD000046
:100370002DE9F05F90F821100024022903D0042118
:100380008163012485E001680A6822F00E020A6098
:1003900001680A6822F001020A603F4E3E4FB21522
:1003A000DFF8F4C0DFF8F090DFF8ECA0DFF8E8B099
:1003B000DFF8E4E00168783F13011502ACF1640C4A
:1003C000A9F15009AAF13C0AABF1280BAEF1140EC9
:1003D0004FF48018B14227D9B9420ED0614512D0EE
:1003E00049451DD0514518D0594518D0714501D106
:1003F000424615E0294EB14201D1012210E0274EBC
:100400001436B14201D110220AE0244E2836B142FE
:1004100006D0224A3C32914201D11A4600E02A46D7
:100420001E49091F0A602BE0B94213D0614517D05D
:10043000494522D051451DD059451DD0714501D1A6
:1004400042461AE0B14202D14FF0807215E0134EDD
:10045000B14201D1012210E0104E1436B14201D157
:1004600010220AE00D4E2836B14206D00B4A3C322B
:10047000914201D11A4600E02A46074980394A6074
:10048000012180F82110002180F82010416B01B17A
:1004900088472046BDE8F09F8000024008040240E3
:1004A0002DE9F05FC16B0A6801680B68046C4FF0BE
:1004B000040808FA04F8844D844E854FDFF814C20E
:1004C000DFF81492DFF814A2DFF814B2DFF814E2B8
:1004D00018EA020F65D05FEA437862D50A6892068F
:1004E00003D40A6822F004020A60DFF8F0814FF4B6
:1004F0008062016808F1140813011402414524D9EF
:10050000A9420DD0B1420FD0B9421AD0614515D0E1
:10051000494515D0514501D1120312E0594501D189
:1005200004220EE0714501D140220AE06D4D1435E0
:10053000A94206D06B4A2832914201D11A4600E006
:1005400022466749091F0A6029E0A94213D0B14237
:1005500015D0B94220D061451BD049451BD051452B
:1005600002D14FF4800217E0414502D14FF0806282
:1005700012E0594501D104220EE0714501D140221B
:100580000AE0584D1435A94206D0564A2832914205
:1005900001D11A4600E022464B4908394A60C16A37
:1005A00071E04FF0020808FA04F818EA020F70D060
:1005B0005FEA83786DD50A68920606D40A6822F04D
:1005C0000A020A60012180F82110DFF810814FF43F
:1005D0000072016808F1140813011402414524D97E
:1005E000A9420DD0B1420FD0B9421AD0614515D001
:1005F000494515D0514501D1120312E0594501D1A9
:1006000002220EE0714501D120220AE0354D143559
:10061000A94206D0334A2832914201D11A4600E05D
:1006200022462F49091F0A6029E0A94213D0B1428E
:1006300015D0B94220D061451BD049451BD051454A
:1006400002D14FF4001217E0414502D14FF0007281
:1006500012E0594501D102220EE0714501D120225C
:100660000AE0204D1435A94206D01E4A2832914294
:1006700001D11A4600E02246134908394A60002198
:1006800080F82010816A00291CD0BDE8F05F08477F
:10069000FFE70825A540154214D01A0712D50A68AD
:1006A00022F00E020A6090F84020C36B012101FA8B
:1006B00002F25A60816380F82110002180F8201036
:1006C000016BE0E7BDE8F09F080002401C0002401B
:1006D0003000024044000240580002406C000240DA
:1006E000080402401C04024030B560B11A4B026895
:1006F00014219A4209D2194B1344B3FBF1F189003A
:10070000016417490AE0012030BD134B5B421344DA
:10071000B3FBF1F1890001640F490839C16302217B
:1007200080F82110136843F6F0718B43F0E901144F
:100730002143D0E902452C43214304692143446904
:10074000214384692143194311600021416301223F
:1007500042770177084630BD08040240F8FFFDBF2C
:100760000000024070470000044910B50A680242C8
:1007700002D00860FFF7F6FF10BD0000140401402E
:100780002DE9F84FDFF8C8910024A9F1040B2346A6
:100790000F2709F1040AABF1040ED1E00125A540B1
:1007A00006EA0502AA4276D1DFF8A8C14E68A6EB98
:1007B0000C0866452BD00DDC032E34D005DC36B397
:1007C000012E19D0022E2FD11BE0112E16D0122E81
:1007D0002AD119E0B8F5881F19D006DCB8F5803F9A
:1007E00015D0B8F5801F1FD111E0B8F5001F0ED04D
:1007F000B8F5041F18D10AE0CB6815E0CB681B1DC3
:1008000012E0CB6808330FE0CB680C330CE08B6848
:100810002BB1012B4FF0080303D0456104E0042302
:1008200002E0056100E00023FF2A01D8064601E04E
:1008300000F104064FEA840501D9A5F12005D6F898
:10084000008007FA05FC28EA0C0803FA05F548EAD7
:100850000508C6F800804D68ED0070D53E4DAE69C4
:1008600046F00106AE61AD6924F0030605F001050E
:1008700000953A4D06EB050CDCF80850A607360F3C
:1008800007FA06F825EA0805DFF8D480404503D1C9
:100890004FF0000825E052E0DFF8C880404502D163
:1008A0004FF001081DE0DFF8C080404502D14FF055
:1008B000020816E0DFF8B480404502D14FF003088B
:1008C0000FE0DFF8AC80404502D14FF0040808E0AB
:1008D000DFF8A080404502D14FF0050801E04FF05D
:1008E000060808FA06F848EA0508CCF808804D68BA
:1008F000D9F80060ED024D4601D5164300E096435D
:100900002E604D68DAF80060AD02554601D51643F9
:1009100000E096432E604D68DBF80060AD035D4655
:1009200001D5164300E096432E604D68DEF8006066
:10093000ED03754601D5164300E096432E60641C16
:100940000A681646E2407FF429AFBDE8F88F000040
:100950000804014000001110001002400000014096
:1009600000080140000C014000100140001401404B
:1009700000180140001C0140C26821EA02030A403D
:1009800043EA0241016170470AB1016170470904FD
:10099000FBE700000148806870470000000000206D
:1009A000024881680278114481607047000000208D
:1009B000074810B5016841F010010160032000F004
:1009C00075F8002000F006F800F024F8002010BDB3
:1009D0000020024070B50D4D04464FF47A7128781E
:1009E000B1FBF0F00A490968B1FBF0F000F0DCFA65
:1009F00048B9102C07D200222146501E00F036F8CC
:100A000000206C6070BD012070BD0000000000205F
:100A10000C0000200C4808B5816941F0010181619A
:100A2000816901F001010091C16941F08051C1610A
:100A3000C06900F0805000900448416821F0E061F6
:100A400041F00071416008BD00100240000001400B
:100A5000002809DB00F01F020121914040098000BD
:100A600000F1E020C0F8001170470000F0B40E4B18
:100A70001B680C46C3F30223C3F10705042D00D9FC
:100A80000425191D072901D2002300E0DB1E0126E1
:100A900006FA05F1491E214099409E40761E1640F7
:100AA0003143F0BC01F067BD0CED00E0064900F0F9
:100AB000070208684FF6FF03184040EA0220034A85
:100AC00010430860704700000CED00E00000FA05DC
:100AD0002DE9F0470F46050061D0434E306800F025
:100AE0000700B84209D2306820F007003843306070
:100AF000306800F00700B84251D128683B4C8107AC
:100B000012D5400703D5606840F4E0606060287843
:100B1000000703D5606840F4605060606068A968B1
:100B200020F0F000084360602878C00728D068688B
:100B3000012810D02168022810D0890700292EDA58
:100B4000616821F0030101436160FFF723FF8046E4
:100B500041F288390DE021688903EFE78901EDE76B
:100B6000FFF718FFA0EB0801494502D90320BDE8B3
:100B7000F0876068696800F00C00B0EB810FEFD17E
:100B8000306800F00700B8420BD9306820F0070049
:100B900038433060306800F00700B84201D00120CF
:100BA000E5E72878400705D56068E96820F4E0604B
:100BB000084360602878000706D56068296920F43A
:100BC000605040EAC100606000F038F86168084A8F
:100BD000C1F30311515CC84006490860064800682B
:100BE000FFF7F8FE0020C2E700200240001002409C
:100BF000E62500080C0000200400002004480549F8
:100C000000684968044AC1F30221515CC84070473A
:100C10000C00002000100240F62500080448054999
:100C200000684968044AC1F3C221515CC84070475A
:100C30000C00002000100240F62500080E4A516802
:100C40000E4801F00C03042B11D0082B0FD10C48D7
:100C5000C1F38343C903C05C0AD55168084AC1F394
:100C60004041921E515C054A5043B0FBF1F0704781
:100C700004494843704700000010024000127A0007
:100C8000D625000800093D002DE9F84F040070D07A
:100C90002078C04DC00749D06868C0F381000128A2
:100CA00007D06868C0F38100022809D16868C003D2
:100CB00006D52868800339D560680028E7D035E07C
:100CC0006068B0F5803F0BD010B1B0F5A02F11D007
:100CD000286820F480302860286820F4802002E012
:100CE000286840F480302860606890B1FFF752FEB9
:100CF00006460AE0286840F480202860F0E700BF3C
:100D0000FFF748FE801B642873D828688003F7D556
:100D10000CE0FFF73FFE064605E000BFFFF73AFE96
:100D2000801B6428F0D828688003F7D420789A4E76
:100D300080074FF001094FF0000839D5686810F0BE
:100D40000C0F07D06868C0F38100022809D16868D9
:100D5000C00306D42868800714D52069012808D16B
:100D600010E02069B0B1C6F80090FFF713FE074607
:100D700005E00AE1FFF70EFEC01B0228C4D8286870
:100D80008007F7D52868616920F0F80040EAC100C3
:100D900028600DE0C6F80080FFF7FCFD074604E080
:100DA000FFF7F8FDC01B022823D828688007F7D476
:100DB000207800072CD57948A169D9B1C0F80090F6
:100DC000FFF7E8FD074604E0FFF7E4FDC01B02283B
:100DD0000FD8686A8007F7D571484FF4FA51006858
:100DE000B0FBF1F0009000BF0098411E0091FAD2D4
:100DF0000EE080E0C0F80080FFF7CCFD074604E07D
:100E0000FFF7C8FDC01B022875D8686A8007F7D4B1
:100E10002078400760D5E8690027C00008D4E86959
:100E200040F08050E861E869012700F080500090B0
:100E30005C480168C90513D40168834641F4807198
:100E40000160FFF7A7FD824606E000BFFFF7A2FDA5
:100E5000A0EB0A0064284ED8DBF80000C005F5D5E9
:100E6000E06801280AD008B1052813D0286A20F0CC
:100E700001002862286A20F0040002E0286A40F09D
:100E800001002862E06841F2883B98B1FFF782FDDB
:100E900082460BE0286A40F004002862EEE700BFBB
:100EA000FFF778FDA0EB0A0159455AD8286A800758
:100EB000F6D50CE0FFF76EFD824605E0FFF76AFD10
:100EC000A0EB0A0159454CD8286A8007F6D41FB117
:100ED000E86920F08050E861E06988B36968C1F38F
:100EE0008101022944D00228C6F8608004D0FFF7AF
:100EF00051FD044638E034E0FFF74CFD074604E0BE
:100F0000FFF748FDC01B02282BD828688001F7D4C2
:100F1000206AB0F5803F05D16868A16820F40030F0
:100F200008436860D4E908010843696821F4741132
:100F300008436860C6F86090FFF72CFD044606E0A1
:100F400025E000BFFFF726FD001B022809D828680E
:100F50008001F7D51BE000BFFFF71CFD001B022836
:100F600002D90320BDE8F88F28688001F4D40EE090
:100F70000128F7D06868226A00F48031914204D1D8
:100F8000616A00F47010884201D00120EAE7002075
:100F9000E8E70000001002400000424280044242A4
:100FA0000C0000200070004010B5401EB0F1807FA2
:100FB00001D3012010BD4FF0E02460610F216017C4
:100FC00001F0D9FA0020A06107202061002010BDA7
:100FD0007047704770B590F83C20012A2CD001244E
:100FE00080F83C40022280F83D2003685A689D68E2
:100FF00022F070060A6832435A60104B02689A4227
:101000000ED00F4B9A420BD0B2F1804F08D00D4B4F
:101010009A4205D00C4B9A4202D00C4B9A4204D112
:10102000496825F080031943916080F83D40002114
:1010300080F83C10084670BD022070BD002C0140B5
:10104000003401400004004000080040000C004053
:1010500010B5040003D094F83D0010B107E0012062
:1010600010BD002084F83C00204600F01FF802204C
:1010700084F83D00211D206801F040F8012084F82B
:10108000460084F83E0084F83F0084F8400084F86D
:10109000410084F8420084F8430084F8440084F856
:1010A000450084F83D00002010BD000008B5006830
:1010B000B0F1804F12D10A48C16941F00101C1610C
:1010C000C069002200F00100009001211C20FFF700
:1010D000CDFCBDE808401C20FFF7BABC08BD0000ED
:1010E0000010024090F83D10012901D00120704706
:1010F000022180F83D100168CA6842F00102CA600E
:1011000000680E4988420ED00D4988420BD0B0F1DC
:10111000804F08D00B49884205D00B49884202D045
:101120000A49884204D1816801F00701062903D0E9
:10113000016841F00101016000207047002C01406E
:10114000003401400004004000080040000C004052
:1011500070B5044690F83C000025012817D0012600
:1011600084F83C60022084F83D002068826822F008
:10117000770222F47F4282600868502838D00DDC64
:1011800020284FD005DC90B3102811D14AE002206E
:1011900070BD302846D040280AD13BE060282FD0CF
:1011A00070280DD0B0F5805F03D0B0F5005F12D08D
:1011B000012584F83D60002084F83C00284670BD7D
:1011C000CB68D1E90121206800F0DEFF206881684A
:1011D00041F0770109E0CB68D1E90121206800F0F6
:1011E000D3FF2068816841F480418160E1E719E024
:1011F000CA684968206801F09BF85021206806E021
:10120000CA684968206801F0A4F86021206800F0ED
:10121000C5FFCEE7CA684968206801F089F8402117
:101220002068F4E7226801461046F0E72DE9F04116
:101230000D46040003D094F83D0018B108E00120E9
:10124000BDE8F081002084F83C00204600F040F822
:10125000022084F83D002068816844F2070291432F
:101260008160211D206800F049FF22689068916923
:10127000166A2B68AF69034340F20330814341EAA9
:101280000721A868EF6908434FF6FC418843E968E5
:1012900040EA0720014328692F6A000140EA07302D
:1012A000084369686D6926F0220646EA0515294358
:1012B00093602268906154F8460B0162012004F8A3
:1012C0001F09E0752076E0762077A0750020B7E74B
:1012D00000B585B0002100910191029103911B4A54
:1012E00001681B48914215D1816941F40061816117
:1012F000816901F400610491816941F00401816117
:101300008069694600F0040004904FF4407000903A
:10131000104816E0104A914215D1816941F40051FC
:101320008161816901F400510491816941F01001EA
:1013300081618069694600F010000490C02000902F
:101340000648FFF71DFA05B000BD0000002C014063
:10135000001002400008014000340140001001402C
:10136000704770B50446006801694FF00005C94335
:10137000890715D4C168C943890711D4E91E0161E1
:1013800001202077206880698007204602D0FFF77F
:10139000E7FF04E000F0E0F8204600F085F925774B
:1013A00020680169C943490717D4C168C94349077F
:1013B00013D46FF004010161022020772068806956
:1013C00010F4407F204602D0FFF7CAFF04E000F08F
:1013D000C3F8204600F068F9257720680169C94301
:1013E000090716D4C168C943090712D46FF0080170
:1013F0000161042020772068C0698007204602D060
:10140000FFF7AEFF04E000F0A7F8204600F04CF92B
:10141000257720680169C943C90617D4C168C94343
:10142000C90613D46FF010010161082020772068ED
:10143000C06910F4407F204602D0FFF791FF04E01E
:1014400000F08AF8204600F02FF92577206801691E
:10145000C943C90708D1C168C943C90704D1891E56
:101460000161204600F022F920680169C94309069C
:1014700009D4C168C943090605D46FF08001016130
:101480002046FFF7A5FD20680169C943490609D434
:10149000C168C943490605D46FF040010161204687
:1014A00000F016F920680169C94389060BD4C168A8
:1014B000C943890607D46FF0200101612046BDE8C9
:1014C0007040FFF786BD70BD30B585B0002100913A
:1014D00001910291039102681B49032502241B48D4
:1014E000B2F1804F22D01A4B9A421DD18A6942F044
:1014F00004028A618A6902F0040204928A6942F055
:1015000008028A618969039401F008010491C021ED
:10151000CDE900146946FFF733F9CDE90054694677
:101520000C480394FFF72CF905B030BD8A6942F0EE
:1015300004028A618969CDE9005401F00401CDE912
:1015400003416946EEE70000001002400008014038
:1015500000040040000C0140704770B5044690F84C
:101560003C0000260D4601280FD0012084F83C00E5
:101570006AB1042A1DD0082A2FD00C2A3FD0012698
:10158000002084F83C00304670BD022070BD206809
:1015900000F00CFE2068816941F00801816120683B
:1015A000816921F004018161206881692A69114300
:1015B00011E0206800F02AFE2068816941F4006192
:1015C00081612068816921F480618161206881697D
:1015D0002A6941EA02218161D2E7206800F04CFECD
:1015E0002068C16941F00801C1612068C16921F02A
:1015F0000401C1612068C1692A69114311E02068B2
:1016000000F06EFE2068C16941F40061C16120688C
:10161000C16921F48061C1612068C1692A6941EA18
:101620000221C161ACE710B5040003D094F83D007D
:1016300010B107E0012010BD002084F83C002046D6
:1016400000F01EF8022084F83D00211D206800F003
:1016500055FD012084F8460084F83E0084F83F00E0
:1016600084F8400084F8410084F8420084F8430084
:1016700084F8440084F8450084F83D00002010BD43
:1016800008B500680649884208D10648C16941F09A
:101690000201C161C06900F00200009008BD0000B5
:1016A00000040040001002407047000006498842D4
:1016B00008D106490878401CC0B208700A2801D138
:1016C00000F0A2BA704700005C000020100000206B
:1016D0007047704770470000F8B501680446086815
:1016E000CA684B6910F00F0F4FF0000559D003F096
:1016F000010602F49077374365D0C10705D0D105C4
:1017000003D5616C41F001016164410705D5D9073A
:1017100003D0616C41F002016164810705D5D907EE
:1017200003D0616C41F004016164010707D502F048
:101730002001314303D0616C41F008016164616CA8
:1017400000293AD0800604D5900602D5204600F044
:1017500041FE20684069616CC0F38010090700D425
:1017600060B3204600F00FFE20684069400621D596
:101770002068143050E8001F21F0400140E80012BA
:10178000002AF5D1E06BA8B16D494163E06BFEF72B
:10179000EFFD002811D0E06B416B01B0BDE8F040D7
:1017A000084783060FD593060DD52046BDE8F840BF
:1017B00000F010BE2046FFF78DFFF8BD2046FFF772
:1017C00089FF6564F8BD266B2023012E7CD1C606F7
:1017D0007AD5D60678D508684868009048694FF0F1
:1017E0000206400640D5E16B086840680004000C22
:1017F000E8D0A28D8242E5D9E085886920282DD0E5
:1018000020680C3050E8001F21F4807140E800127D
:10181000002AF5D12068143050E8001F21F00101A2
:1018200040E80012002AF5D12068143050E8001F6B
:1018300021F0400140E80012002AF5D184F842303E
:10184000256320680C3050E8001F21F0100140E8AB
:101850000012002AF5D1E06BFEF766FD6663A08DED
:10186000E18D401A81B22AE0A08DE18D401A81B24B
:10187000E08D0028A6D00029A4D022680C3252E8BE
:10188000000F20F4907042E80007002FF5D1206887
:10189000143050E8002F22F0010240E80027002F0A
:1018A000F5D184F84230256320680C3050E8002FD1
:1018B00022F0100240E80023002BF5D16663204699
:1018C000FFF707FFF8BDFFE705062BD5150629D55D
:1018D00094F841002128F5D1A068B0F5805F01D1CE
:1018E0002069B0B1206A411C2162216800784860FB
:1018F000E08C401E0004000CE084E3D12068C16845
:1019000021F08001C1602068C16841F04001C160E0
:10191000D8E7206A0088C0F308004860206A801C6D
:101920002062E5E74006CDD55006CBD5CA682046F3
:1019300022F04002CA6084F8413000F062F9C1E749
:101940007723000870B5040004D094F84100002506
:1019500010B106E0012070BD84F84050204600F030
:1019600023F8242084F841002068C16821F4005144
:10197000C160204600F090FD2068016921F490418B
:1019800001612068416921F02A0141612068C16834
:1019900041F40051C1606564202084F8410084F85E
:1019A00042006563002070BD2DE9F04786B0002439
:1019B00000940194029403940646844F036884487B
:1019C00002210322834D4FF4806C4FF40069BB4227
:1019D0001CD1C36943F40023C361C36903F400232A
:1019E0000493836943F0100383618069CDE900C1EA
:1019F00000F01000CDE9032069462846FEF7C0FE3E
:101A0000CDE9009469462846029429E0DFF8C881B0
:101A10000427434529D1C36943F48013C361C369D3
:101A200003F480130493836943F010038361836993
:101A300003F010030493836943F0200383618069FA
:101A4000039200F020000490B802CDE9000169463D
:101A50002846FEF795FECDE9007469465F4802947A
:101A6000FEF78EFE06B0BDE8F087DFF874815D4DAD
:101A70004FF0800A43452CD1836943F4804383614E
:101A8000836903F480430493836943F0080383610B
:101A90008069039200F0080004904020CDE9000125
:101AA00069462846FEF76CFECDE900A46946284643
:101AB0000294FEF765FE4C48416841F0E06141F058
:101AC00004014160002202212520FEF7CFFF2520DE
:101AD00029E0DFF81881434528D1C36943F4003376
:101AE000C361C36903F400330493836943F00403BF
:101AF00083618069CDE9007100F00400CDE9032025
:101B00003B4D69462846FEF73BFE0820CDE9000420
:101B1000694628460294FEF733FE00220221262061
:101B2000FEF7A4FF2620FEF793FF9BE7314FBB4251
:101B300098D1C36943F48023C361C36903F480234C
:101B40000493836943F0080383618069CDE900C190
:101B500000F00800CDE9032069462846FEF710FE94
:101B6000CDE90094694628460294FEF709FE234D0C
:101B700021485746C5E90004C5E9024A2C616C6159
:101B8000AC612846EC61FEF7AFFD08B1FEF7CAFB79
:101B9000F5636E62194D18484435143801C510209C
:101BA00091C5164845F8104944306C61AC61EC6150
:101BB000FEF79AFD08B1FEF7B5FBB56300220221DE
:101BC00027206E62FEF752FF2720ACE7004C004052
:101BD000001002400010014000500040001401407D
:101BE00000380140000C014000000140004400406A
:101BF0000008014000480040300002409C020020E4
:101C000070477047FEE700004FF400510148FEF7AF
:101C1000B3BE0000000C01400D4808B5416941F019
:101C2000010141614069002200F00100009011466D
:101C30000C20FEF71BFF0C20FEF70AFF00221146C6
:101C40000D20FEF713FFBDE808400D20FEF700BF92
:101C5000001002402DE9F04786B000243648009479
:101C6000019402940394816941F0100181618169BA
:101C700001F010010491816941F0200181618169C5
:101C800001F020010491816941F0040181618169C1
:101C900001F004010491816941F0080181618069CA
:101CA000DFF8988000F008004FF4604504900022AF
:101CB00029464046FEF768FEDFF884A00022302166
:101CC0005046FEF761FEDFF87C904FF46347002238
:101CD00039464846FEF758FE009502260125039630
:101CE000CDE9015469464046FEF74AFD3020CDE972
:101CF0000005CDE9024669465046FEF741FD0097D2
:101D00000396CDE9015469464846FEF739FD4FF484
:101D10001C4000900C48CDE9010469465046FEF78E
:101D20002FFD002201212820FEF7A0FE2820FEF72B
:101D30008FFE06B0BDE8F0870010024000100140A1
:101D400000080140000C01400000111010B58CB0DB
:101D500024216846FEF75AFA0024164809941449CB
:101D60000A94C0E900144FF6FF71C0E90241046112
:101D7000446184610120CDE90004CDE902040494AA
:101D8000CDE90540079469460A480894FFF74EFAE2
:101D900008B1FEF7C7FA099409A906480A94FFF7A3
:101DA00019F9002801D0FEF7BDFA0CB010BD0000F3
:101DB000002C01401400002010B58EB000240794C0
:101DC000089409940A940B941C2168460C94FEF71D
:101DD0001DFA22484FF08041016040F2CF21C0E956
:101DE00001146321C0E9031480218161FFF730F9F8
:101DF00008B1FEF797FA4FF48050079007A91748EB
:101E0000FFF7A6F908B1FEF78DFA1448FFF70BFCAF
:101E100008B1FEF787FA0B940BA910480C94FFF752
:101E2000D9F808B1FEF77EFA6020CDE900040294EB
:101E30000022694609480494FFF78FFB08B1FEF7BA
:101E400071FA042269460548FFF787FB08B1FEF7DF
:101E500069FA0248FFF738FB0EB010BD5C000020A5
:101E600010B58AB0002407941C2168460894FEF738
:101E7000CDF92248204901604721C0E9011444F608
:101E80001F61C0E903148461FFF7CDFB08B1FEF7C1
:101E900049FA079407A919480894FFF79BF808B175
:101EA000FEF740FA6020CDE9000402940022694662
:101EB00012480494FFF751FB08B1FEF733FA0422ED
:101EC00069460E48FFF749FB08B1FEF72BFA0822D6
:101ED00069460A48FFF741FB08B1FEF723FA0C22D6
:101EE00069460648FFF739FB08B1FEF71BFA0348BD
:101EF000FFF7EAFA0AB010BD00040040A400002079
:101F000010B58CB024216846FEF780F900241648ED
:101F1000099414490A94C0E900144FF6FF71C0E90E
:101F200002410461446184610120CDE90004CDE9EE
:101F300002040494CDE90540079469460A480894D0
:101F4000FFF774F908B1FEF7EDF9099409A90648FD
:101F50000A94FFF73FF8002801D0FEF7E3F90CB030
:101F600010BD000000340140EC0000200C4810B50A
:101F70000A4901604FF4E1314160002181600C2287
:101F8000C160C0E904128161C161FFF7DBFC002878
:101F900003D0BDE81040FEF7C5B910BD004C0040AD
:101FA000340100200C4810B50A4901604FF4E131BA
:101FB0004160002181600C22C160C0E9041281618E
:101FC000C161FFF7BFFC002803D0BDE81040FEF759
:101FD000A9B910BD005000407C0100200C4810B58C
:101FE0000A4901604FF4E1314160002181600C2217
:101FF000C160C0E904128161C161FFF7A3FC002840
:1020000003D0BDE81040FEF78DB910BD0038014087
:10201000C40100200C4810B50A4901604FF4E131B9
:102020004160002181600C22C160C0E9041281611D
:10203000C161FFF787FC002803D0BDE81040FEF720
:1020400071B910BD004400400C0200200C4810B5CE
:102050000A4901604FF4E1314160002181600C22A6
:10206000C160C0E904128161C161FFF76BFC002807
:1020700003D0BDE81040FEF755B910BD0048004040
:1020800054020020FEE7FEE770477047FEF788BC69
:1020900030B58FB028216846FEF7B8F814210AA899
:1020A000FEF7B4F801210804CDE9001000240294E1
:1020B00002250491CDE907504FF4E01009906846DD
:1020C000FEF7E2FD08B172B6FEE70F20CDE90A0582
:1020D0004FF48060CDE90C4002210AA80E94FEF76F
:1020E000F7FC002801D072B6FEE70FB030BD704794
:1020F0000148FFF736B900005C000020F0B5026827
:102100001C4B1D4D1D4E1E4F1E4C4FF0804C9842D7
:1021100009D0A04207D0604505D0A84203D0B04204
:1021200001D0B84204D122F0700E4A6842EA0E0291
:10213000984209D0A04207D0604505D0A84203D0FC
:10214000B04201D0B84203D122F44075CA682A4394
:102150004D6922F080022A4302608A68C2620A68DE
:102160008262984201D0A04201D109690163012134
:102170004161F0BD002C0140000400400008004017
:10218000000C00400034014010B5846842EA03228C
:1021900024F47F440A432243826010BD826822F007
:1021A00070020A4342F0070181607047F0B5036A8C
:1021B000026A22F00102026242688469124E24F02F
:1021C00073050C682C4323F002058B682B430D4DDF
:1021D000A84201D0B04205D123F00807CB683B43A9
:1021E00023F00403A84201D0B04205D14D6922F486
:1021F000407215438A692A43426084614968416399
:102200000362F0BD002C014000340140F0B5026AC9
:10221000036A23F010030362436884690D6824F4A1
:10222000E64444EA05248D6822F0200242EA0512C1
:102230000F4D104EA84201D0B04206D1CF6822F017
:10224000800242EA071222F04002A84201D0B042C6
:1022500007D14D6923F4406343EA85038D6943EA5E
:10226000850343608461496881630262F0BD0000B8
:10227000002C014000340140F0B5026A036A23F4E7
:10228000807303624368C46922F4007224F073050A
:102290000C68124E2C438D6842EA05220E4DA8426E
:1022A00001D0B04206D1CF6822F4006242EA072290
:1022B00022F48062A84201D0B04207D14D6923F4D4
:1022C000405343EA05138D6943EA05134360C46133
:1022D0004968C1630262F0BD002C01400034014036
:1022E00030B5046A026A22F4805202624268C3690D
:1022F0000D6823F4E64343EA05238D6824F4005473
:1023000044EA0534084DA84202D0084DA84204D141
:102310004D6922F4804242EA85124260C3614968F5
:102320000164046230BD0000002C01400034014013
:1023300010B5036A046A24F001040462846924F07D
:10234000F00444EA021423F00A020A4384610262A0
:1023500010BD10B5036A046A24F010040462846995
:1023600023F0A00324F4704444EA023243EA01114A
:102370008261016210BD10B5406A0021C185C1842F
:10238000FFF7A8F910BD01680C3151E8002F22F4C5
:10239000907241E80023002BF5D10168143151E817
:1023A000002F22F0010241E80023002BF5D1016B40
:1023B000012909D101680C3151E8002F22F01002E7
:1023C00041E80023002BF5D1202180F842100021A4
:1023D0000163704708B590F84210222901D002200D
:1023E00008BD82684FF480539A4201D1016921B13E
:1023F000816A9A421BD04AB10AE00268816A526837
:10240000C2F308020A80816A891C08E0026972B17D
:102410000268526802F07F020A70816A491C816278
:10242000C18D491E0904090CC18503D01BE0026857
:102430005268F1E70168CA6822F02002CA600168A8
:10244000CA6822F48072CA6001684A6922F00102F7
:102450004A61202180F8421000214163026B012A69
:1024600003D0FFF7CDFB002008BD016301680C31EC
:1024700051E8002F22F0100241E80023002BF5D193
:1024800001680A68D20602D50A6849680091818D00
:10249000FFF71FF9E7E7000070B50446006801691F
:1024A000E26821F44051114301612169A0680843A9
:1024B000616908432168CA6841F20C639A43024388
:1024C000CA6020684169A26921F4407111434161E9
:1024D0001E492068884202D1FEF7A0FB01E0FEF70A
:1024E0008DFB00EBC00101EB0012606864218000ED
:1024F000B2FBF0F3B3FBF1F36FF018067343B2FBDA
:10250000F0F5B2FBF0F605EB8305322303EB05157E
:10251000B5FBF1F5B6FBF1F605F0F00505EB061598
:10252000B2FBF0F6B2FBF0F0B0FBF1F06FF0180286
:10253000504306EB800003EB0010B0FBF1F0216884
:1025400000F00F002844886070BD00000038014092
:102550000148FFF7C1B80000C40100200148FFF79F
:10256000BBB800000C0200200148FFF7B5B800001E
:1025700054020020FEE70907090E002804DB00F1E1
:10258000E02080F80014704700F00F0000F1E02018
:1025900080F8141D7047FEF70BFAFFF779FDFFF77F
:1025A00059FBFFF739FBFFF7D1FBFFF705FCFFF7FE
:1025B00057FCFFF7A5FCFFF7D9FCFFF7F3FCFFF78B
:1025C0000DFDFFF727FDFFF741FDFDF783FEFDF74A
:1025D00087FEFCE7010202030405060708090A0B4F
:1025E0000C0D0E0F10100000000000000000010292
:1025F00003040607080900000000010203040000AC
:102600002026000800000020140000006C010008D3
:102610003426000814000020740900008801000816
:102620000100000010000000000000000024F40081
:0426300000000000A6
:0400000508000131BD
:00000001FF
