:020000040800F2
:10000000F00E002079020008933E00085D390008D8
:10001000913E00085D1D0008D9480008000000005E
:100020000000000000000000000000001541000872
:10003000BB1D000800000000C9400008174100086F
:10004000930200089302000893020008930200083C
:10005000930200089302000893020008930200082C
:10006000930200089302000893020008930200081C
:10007000611D00086D1D000893020008930200082E
:10008000791D0008851D00089302000893020008EE
:1000900093020008930200089302000893020008EC
:1000A00093020008930200089302000893020008DC
:1000B0007D410008930200089302000893020008A3
:1000C00093020008930200089302000893020008BC
:1000D00093020008B5480008C1480008CD48000850
:1000E000BD1D000893020008930200089302000857
:1000F000930200089302000893020008930200088C
:10010000930200089302000893020008930200087B
:10011000930200089302000893020008930200086B
:10012000930200089302000893020008930200085B
:1001300000F002F800F090F80AA090E8000C824469
:100140008344AAF10107DA4501D100F085F8AFF246
:10015000090EBAE80F0013F0010F18BFFB1A43F0A5
:10016000010318471C5300003C530000103A24BF01
:1001700078C878C1FAD8520724BF30C830C144BF0C
:1001800004680C607047000000230024002500264E
:10019000103A28BF78C1FBD8520728BF30C148BFEA
:1001A0000B6070476E2900F0C182702900F00B844B
:1001B000662904F0C184652904F0BE84672904F02F
:1001C000BB84612904F0BA8403681B0A28BF41F08C
:1001D0008001692900F0C880642900F0C580752974
:1001E00000F0C2806F2900F09883782900F0D7834F
:1001F000E92900F03383E42900F03083F52900F089
:100200002D83EF2900F09583F82900F0D683036849
:10021000DB0928BF41F08001632900F0BB87732907
:1002200000F0C087E32900F0CB87F32900F0D087E6
:10023000002070471FB501F01DF8040000200021C8
:1002400004F064FC401C60600020002104F048FCC5
:10025000E0601FBD10B510BD00F0DEFF1146FFF7D6
:10026000E9FF04F01EFC01F0BBF803B4FFF7F2FF56
:1002700003BC01F003F90000094880470948004722
:10028000FEE7FEE7FEE7FEE7FEE7FEE7FEE7FEE746
:10029000FEE7FEE704480549054A064B70470000A3
:1002A0007941000831010008F0080020F00E00201C
:1002B000F00A0020F00A00207CB51D4616460C000E
:1002C000009001D02044401E074B7B442A466946DB
:1002D0000190304600F043FA05461CB10020694603
:1002E00000F050FA28467CBDC10400000FB41CB5D4
:1002F000084B06AA7B4469460090059800F02FFA47
:1003000004460020694600F03DFA20461CBC5DF81A
:1003100014FB00008D04000070B504468569006878
:10032000C10601D5302600E02026C00707D070BDE9
:10033000D4E9012130469047206A401C20626D1E9E
:10034000F6D570BD70B5044685690078C00707D141
:1003500070BDD4E9012120209047206A401C206212
:100360006D1EF6D570BD00002DE9F0410646002453
:1003700010687529314616A510D000F043F9002801
:1003800002DA404213A507E031688A0701D512A5B9
:1003900002E0490704D511A5012401E000F03BF972
:1003A00000210A2206F1240709E0B0FBF2FCB0FBB1
:1003B000F2F302FB1C00303078541846491C002828
:1003C000F3D123462A463046BDE8F04100F055B946
:1003D000000000002D0000002B00000020000000A5
:1003E0002DE9F05F894604464FF0000ADFF874B14A
:1003F000FB44C0F820A02046E1688847002874D05C
:10040000252806D0D4E901219047206A401C2062AB
:10041000F1E700265F462046E16888472028054628
:1004200007DB312D05D2781910F8200C08B10643EE
:10043000F1E7B00701D526F00406C4F81CA0002798
:10044000C4F818A02A2D09D0284604F023FB38B39D
:1004500004EB8708303DC8F8185019E059F8041B20
:10046000204604EB87029161E1688847012F054629
:1004700018D1E069002820DA26F020061DE0D8F81F
:10048000180000EB800005EB40003038C8F8180079
:100490002046E1688847054604F0FCFA0028EED1C2
:1004A000012F0AD02E2D08D12046E16888477F1CF5
:1004B0000546022F46F02006C4DBA069002803DAB7
:1004C000404246F00106A061F00701D026F0100678
:1004D0006C2D0BD0682D09D04C2D39D06A2D35D01C
:1004E000742D35D07A2D33D016E038E0E1682F46F0
:1004F00020468847B842054609D16C2F26D04FF4D4
:100500008060E168064320468847054604E06C2F7A
:100510001AD04FF4807006430DB3A5F1410019289D
:1005200002D8203546F400664A4629462046266011
:100530004E46FFF737FE80B101280BD0F61D26F09E
:10054000070000F1080956E74020E4E78020D8E7DB
:100550000020D6E706F104094DE7284652E7206A55
:10056000BDE8F09F8E4F000040EA0103024630B51F
:100570009B0710D14FF0013400E008C208C91D1BD1
:100580009D4315EAC41FF8D013F0FF0102F8011BC8
:100590000DD01B0AF8E711F8013B002B02F8013BD4
:1005A00005D011F8013B002B02F8013BF3D130BD1F
:1005B0004FF0000200B5134694469646203922BFFC
:1005C000A0E80C50A0E80C50B1F12001BFF4F7AF47
:1005D000090728BFA0E80C5048BF0CC05DF804EB29
:1005E000890028BF40F8042B08BF704748BF20F897
:1005F000022B11F0804F18BF00F8012B7047704795
:100600007047704709684A0501D540B27047C9056F
:10061000FCD500B2704709684A0501D5C0B27047E1
:10062000C905FCD580B2704770B50C460546012A55
:1006300005D02878800600D5EA69002302E001236E
:1006400005E05B1C934202D2E05C0028F9D1A86966
:10065000E618C01AA861286A184428622846FFF7DD
:100660005BFE04E0D5E9012114F8010B9047B44288
:10067000F8D32846FFF766FE70BD2DE9F0470D461A
:1006800099469246044600F124080168880604D57C
:10069000E06921F01001216000E00120A84201DDA5
:1006A000471B00E00027A1697A1902EB0900081A2C
:1006B000A0612078C00602D42046FFF72DFE002658
:1006C00008E0D4E901211AF806009047206A401C8E
:1006D000761C20624E45F4DB2078C0060AD5204601
:1006E000FFF71AFE06E0D4E9012130209047206A86
:1006F000401C2062381EA7F10107F4DC07E0D4E9B2
:10070000012118F805009047206A401C2062281E2D
:10071000A5F10105F3DC2046FFF714FE2078000662
:1007200002D50220BDE8F0870120FBE711680268CE
:10073000006A530501D508700AE0D30501D5088089
:1007400006E0130603D5C217C1E9000200E0086005
:100750000120704701694A1C02610878704700B5A2
:100760008FB0CDE901310021059105497944CDE9EA
:10077000031011466846FFF733FE0FB000BD0000BE
:10078000E5FFFFFF0A6802F8010B0A607047D1E934
:1007900000239A4202D2531C0B6010707047000075
:1007A0002DE9FF5F15468A460446DFF8AC80F84421
:1007B0000027D8E900103E46CDE9001010E03AF8D5
:1007C00016106A4602A800F007FD411C07D02178E8
:1007D000890603D5E269391891420DD80744761C81
:1007E0002078800602D5E069B84205DDAE42E6DB3E
:1007F0003AF816000028E2D1A069C01BA06120468B
:10080000FFF78AFDD8E90010CDE90010002017E0BD
:100810003AF818106A4602A800F0DEFCB0F1FF3F7B
:1008200081460BD000250DF1080B05E0D4E901212C
:100830001BF8050090476D1C4D45F7D308F10100EA
:10084000B0428046E4DB206A384420622046FFF74D
:1008500079FDBDE8FF9F0000E24B00002DE9F0416B
:100860008046D21D22F007020025D2E90002F529B8
:1008700015A614D0011E72F1000106DA0023D0EB98
:10088000030063EB020211A608E0D8F800108B0702
:1008900001D50FA602E0490701D50EA60125114694
:1008A000002408F1240704E000F098F830323A55AB
:1008B000641C50EA0102F7D12B46324621464046DD
:1008C000BDE8F041FFF7D9BE000000002D00000098
:1008D0002B0000002000000030B4002100F12404AF
:1008E00008E002F00705D208303542EA4372DB081F
:1008F0006554491C52EA0305F3D10468002310A291
:10090000250707D5A40600D421B1C46901230DA28F
:10091000641EC46130BCFFF7B0BE10B5044621466A
:100920001068FFF778FE02462046BDE8104000231D
:10093000D2E7D21D22F00701D1E90023CCE7000065
:100940000000000030000000F0B40D4601880905E9
:1009500002D5214C7C4402E01F4C7C440E34002123
:1009600000F1240608E002F00F071209E75D42EAF1
:1009700003721B097754491C52EA0307F3D102782A
:100980000023120704D5702D06D009B102231134BB
:100990002246F0BCFFF771BE01231034F8E770B5B2
:1009A00004460D4621461068FFF735FE02462946EB
:1009B0002046BDE870400023C6E7D21D22F00703A1
:1009C000D3E90023C0E70368126843F02003036003
:1009D0000823C3610023B7E7444A000030B5B0F1F3
:1009E0000A024FEA900E71F100034EEA817EB0EBED
:1009F0000E0061EB91014FEA101E4EEA017E10EBF2
:100A00000E0041EB11114FEA102E4EEA016E10EB71
:100A10000E0041EB11214FEA104E4EEA014E10EB51
:100A20000E0041EB1141401841F100014FEAD000A6
:100A300040EA41704FEAD10110EB80054FEA810492
:100A400044EA907444EB01046D1944EB0404521B16
:100A5000A3414FF0000348BF0A3200D530BD401C0F
:100A600041F1000130BD70472DE9FF4F0C461E4695
:100A70004FF0FF378BB0D2E90001DDF860800A90BB
:100A80008A46C1F30A5505B93D46002108464FF094
:100A90000000BAF1000F00F4400005DA00EB80001E
:100AA0004FF4400101EA50004FEA9059B9F1010FAB
:100AB00000DDB9460A9850EA4A000ED044F61050BC
:100AC000A5F2FF3545432F14B8F1000F1ED0754233
:100AD000291E1EDDC9F100021CE0B8F1010F4FF024
:100AE000000001D0302103E0F24305E02154401C16
:100AF000B042FBDB30460022002121540B99C1F8A3
:100B00000880C1E900200FB0BDE8F08FBD1B6D1C4F
:100B1000DEE74A4600DA694206A800F0EFFB06ABC2
:100B200093E8070003AB83E8070050460A9900F0FA
:100B3000ACFC8DE80700A0F500501F38009003982A
:100B4000002D0ADD42F21F014A460844002303A992
:100B50000390684600F015FF09E0A0F500504A46F2
:100B60001F38002303A90390684600F01FFF8DE89B
:100B700007000004000C03D04FF0FF30410800E0F4
:100B80001046B8F1000F03D00022009215461EE077
:100B9000751E05D4FFF722FF303262556D1EF9D560
:100BA000B3460122084302D000227F1C04E02078D3
:100BB000302801D100227F1E002A099784D01DE031
:100BC000112D07DAFFF70AFF303262556D1C50EA2B
:100BD0000102F5D1084302D00098C8B10EE000210F
:100BE000681E05E0235C625C63542254401E491C6D
:100BF0008142F7DBAB46A81B401E0990002004F899
:100C00000B000B98099AC0F80880C0E9002B7AE71E
:100C100011264FF0000857E72DE9F04F88460446AB
:100C2000D21D22F0070191B0D1E90001CDE90A01FE
:100C300003F00CFF02460B98C00F01D02D2007E0F7
:100C40002068810701D52B2002E0202101EAC000A5
:100C5000032A099001D0072A05DB034641462046B6
:100C600000F00CFB0BE12078800601D5E06900E084
:100C70000620B8F1650F814606D0B8F1660F18D08E
:100C8000B8F1670F70D131E00020B9F1110F009079
:100C900001DB112301E009F101030AAA01A90CA853
:100CA000FFF7E2FEDDE90C70002609F1010583463D
:100CB00047E001204B4600904FF000470AAA01A9E7
:100CC0000CA8FFF7D1FEDDE90DB00C995D460026BA
:100CD00010B909F101000D18B9EB050003D4C0F1FA
:100CE000FF3609F10105A5EB09002BE0B9F1010F71
:100CF00001DA4FF001090020B9F1110F00904846C8
:100D000001DD112300E003460AAA01A90CA8FFF7A0
:100D1000ABFEDDE90C704D460026834620780007C7
:100D20000AD4AB4500DA5D4601A8012D04DD411966
:100D300011F8011C302907D04F4502DA17F1040FD2
:100D400004DA012082460FE06D1EEEE7002F02DC80
:100D5000ED1B3E4403E0781CA84200DD7D1CB81B5F
:100D600000F1010A4FF000472078000703D4AA459C
:100D700001DB4FF0FF3A0021B7F1004F0DF14308BE
:100D80008DF8431024D002202B23002F01DA7F425C
:100D90002D230A21021EA0F1010000DC5FB197FBA8
:100DA000F1FC97FBF1F201FB1C7C17460CF1300CB7
:100DB00008F801CDEEE7A8F10100037021880905CC
:100DC00001D5452100E06521A0F1010800F8011CD2
:100DD00009980FA9A1EB0807FF1D00B101204119D7
:100DE00001EBEA70A1693844081A401EA06120781E
:100DF000C00602D42046FFF78FFA099828B1D4E93B
:100E000001219047206A401C20622078C00622D52C
:100E10002046FFF781FA1EE0002E04DBB34502DD19
:100E200001A8805D00E03020D4E901219047206ACC
:100E3000401C2062761CAAF101005FEA000A0AD178
:100E400000F018FAC0680168405CD4E901219047BD
:100E5000206A401C2062281EA5F10105DCDC07E0A9
:100E6000D4E9012118F8010B9047206A401C206248
:100E7000381EA7F10107F3DC2046FFF763FA0320D1
:100E800011B041E62DE9F04F04460D46D21D22F087
:100E9000070089B0D0E900974846394603F0D6FDEF
:100EA0000246F80F01D02D2307E02068810701D505
:100EB0002B2302E0202101EAC0038DF820300BB182
:100EC000012000E00020032A824601D0072A04DB2B
:100ED0002946204600F0D2F93FE12078800601D46F
:100EE0000D2500E0E569C7F30A560D2D49DA00210A
:100EF0004FEA175B08464FF00000002F00F4400057
:100F000007DA00EB80004FF4400100EBD07001EAFB
:100F100060008115012901DD4FF0FF3100224FEA09
:100F2000850CBCF1180F06D31346ACF118004FF036
:100F30008052C24003E04FF4801323FA0CF30CF10B
:100F40000C0CBCF1200F04D3ACF1200C09FA0CF00E
:100F500001E007FA0CF000294FF0004801DD18B954
:100F60000FE00ED140450CD319EB02095F4121B9C6
:100F7000404502D19F4329EA0209BBEB175F00D02D
:100F8000761C2088000502D57B48784402E07A4828
:100F90007844193808AA302302F80A30037C0AF191
:100FA0000101002E0AF1020A53546A4602DC4FF096
:100FB000300101E04FF031014FF001088DF80010D1
:100FC00002D0A6F2FF3603E059EA470100D06B4E8B
:100FD000002D02DC2178090704D54FF002082E21EC
:100FE0008DF80110C44600210BE0C7F303433F0115
:100FF000C35C491C6D1E02F80830052908F1010880
:1010000001DA002DF1DC00210CE000EB1973491C22
:101010001B786D1E082902F808304FEA091908F1FB
:10102000010801DA002DF0DC21688B0602D516E0FC
:10103000A8F10108E04505DD02EB080313F8013CC7
:10104000302BF5D0B8F1000F09DD02EB080313F8DF
:10105000013C2E2B03D1090701D4A8F10108002D72
:1010600005DD3E2102F808106D1E08F10108407CE4
:10107000002E02F8080008F1010804DA2D2076425B
:1010800002F8080002E02B2002F808000A214FF4C1
:101090007A70864208F101080BDB96FBF0F33033DF
:1010A00002F8083096FBF0F308F1010800FB136624
:1010B00001E0642E0CDB642096FBF0F3303302F881
:1010C000083096FBF0F308F1010800FB136601E01D
:1010D0000A2E06DB96FBF1F0303002F8080008F12A
:1010E000010896FBF1F001FB1060303002F80800B7
:1010F000A16908F1010808EB050202EB0A00081AD1
:10110000A0612078C00602D42046FFF705F9216AC5
:1011100008AE01EB0A00206204E0D4E9012116F8D0
:10112000010B9047BAF1010AF7D22078C00602D528
:101130002046FFF7F1F86E4609E016F8010B3E284D
:101140000FD0D4E901219047206A401C2062B8F1F9
:101150000108F2D22046FFF7F5F809B00320BDE8F8
:10116000F08F206A2844206203E0D4E90121302076
:1011700090476D1EEBD3F8E74944000002FCFFFFE7
:1011800010B5436913B1AFF3008001E0FFF74CFAEB
:10119000012010BD127800F124010A7000224A706B
:1011A0000122EDE711684FF0FF32E9E710B543691E
:1011B00013B1AFF3008001E0FFF7F2FA012010BD98
:1011C000128800F1240182840022C2840122EDE70A
:1011D00011684FF0FF32E9E770B516460C46054638
:1011E00000F040F8036893F80101012806D0FF2CB5
:1011F0000FD8185D68B101202C7070BDD3F80701BD
:101200003246214603F2071303442846BDE87040E6
:1012100018474FF0FF3070BD754600F0EBF8AE4652
:1012200005006946534620F00700854618B020B5F2
:10123000FFF730F8BDE820404FF000064FF0000700
:101240004FF000084FF0000B21F00701AC46ACE86E
:10125000C009ACE8C009ACE8C009ACE8C0098D46DB
:101260007047000010B500F005F8001D10BD00BF6C
:101270009D38000000487047AC0800202DE9F0417F
:101280001F46044603260168072A01F4006004DBB8
:1012900008B116A505E016A503E008B115A500E004
:1012A00015A521F010002060A069C01EA0610FB13B
:1012B000401EA0612046FFF72FF84FB1D4E901216D
:1012C00038469047206A401C2062C01C206206E01D
:1012D000206AFAE7D4E9012115F8010B9047761E40
:1012E000F8D22046FFF72EF8BDE8F0814E414E00BF
:1012F0006E616E00494E4600696E66002DE9F0474A
:10130000814616468AB0354878440DC88DE80D00F0
:1013100032487844801C03AC0DC884E80D0041F6C7
:101320009B300844372190FBF1F290FBF1F5A5F1D9
:10133000800501FB12041B3C02D56442012000E041
:101340000020DFF898A080460027FA44AAF1BE0AE0
:101350000EE0E0070AD03246684607EB470101235A
:101360000AEB810100F022FB8DE8070064107F1C6E
:10137000002CEED1194F7F44AE3F19E0E80715D09D
:1013800007EB04100DF1180A90E80E008AE80E0031
:10139000C068F04201D1981908903246012306A98D
:1013A00003A800F003FB03AB83E807006D10641C87
:1013B000002DE3D14FF0010332466946B8F1000F2A
:1013C00003A802D000F0DDFA01E000F0EFFAC9E96D
:1013D0000001C9F808200AB0BDE8F0875C410000B0
:1013E00010B50446AFF300802046BDE81040FEF77C
:1013F0003CBF0000004870478C0800204FF0013CC3
:1014000050F8042B51F8043B9A4221D1A2EB0C0373
:10141000934313EACC1317D150F8042B51F8043B33
:101420009A4215D1A2EB0C03934313EACC130BD1D0
:1014300050F8042B51F8043B9A4209D1A2EB0C035B
:10144000934313EACC13DBD04FF00000704700BF8A
:10145000D01A01BAB1FA81F101F0180122FA01F0B3
:10146000CB40C1F12001DBB2C0B2C01A2CFA01F3AB
:10147000D11A914311EAC311E6D1704701491820EE
:10148000ABBEFEE72600020070475FEA400C08BFD3
:1014900091F0000F4FEA8C234FEAC12243EA5151E9
:1014A0004FEA1C5018BF00F5F0404FEA300018BF5B
:1014B00041F000415FEA6C5C00F02980BCF1FF3F25
:1014C00008BF40F080407047130C06BF12044FF075
:1014D000100C4FF0000C130E04BF12020CF1080C9C
:1014E000130F04BF12010CF1040C930F04BF920000
:1014F0000CF1020CD30F04BF52000CF1010C114689
:101500004FF00002A0F11F00A0EB0C00704711F09B
:10151000004F08BF704731F000413FF4D5AF0B0CCE
:1015200006BF09044FF0100C4FF0000C0B0E04BF67
:1015300009020CF1080C0B0F04BF09010CF1040C9B
:101540008B0F04BF89000CF1020CCB0F04BF4900C4
:101550000CF1010CCCF12003A0EB0C0022FA03F3F8
:1015600002FA0CF241EA030100F10100704720F099
:101570007F4C80EA030023F07F47ACEB070303F5C1
:101580007C5300F0004003F1FF032DE980494FEA4E
:10159000154B09B44FEA144325EA0B4E24EA0348DD
:1015A0000FF2042606EB132749083E785FEA320261
:1015B00003FB0667C7F5000707FB06F64FEA54373B
:1015C0004FEAD64606F1020607FB066CCCF1005C3A
:1015D0004FEA1C472CEA074C07FB06F40CFB06F508
:1015E00004EB15464FEA961634BF00204FF000403A
:1015F0004FEAD13706FB07FC4FEA1C4C0CFB0BF7FC
:10160000D21B03FB0CF761EB07010CFB0EF7B0EBF1
:10161000074072EB17420CFB08F734BFA2EB0742FE
:10162000B2EB074261EB17414FEA0C444FEA9107D6
:1016300006FB07FC4FEA1C4C0CFB0BF7B0EBC7405A
:1016400072EB573203FB0CF734BFA2EBC742B2EB8D
:10165000C74261EB57310CFB0EF7B0EBC70072EBE2
:1016600057720CFB08F734BFA2EBC702B2EBC702FC
:1016700061EB5771039F4FEA816141EA921104EBDC
:10168000CC044FEAD1374FEA826206FB07FC42EAFC
:1016900090124FEA80604FEA1C4C0CFB0BF7D21BF8
:1016A00003FB0CF761EB07010CFB0EF7B0EB0740F7
:1016B00072EB17420CFB08F734BFA2EB0742B2EB08
:1016C000074261EB17414FEA8C554FEA910704EB53
:1016D0009C2406FB07FC4FEA1C4C0CFB0BF7B0EB01
:1016E000C74072EB573203FB0CF734BFA2EBC74283
:1016F000B2EBC74261EB57310CFB0EF7B0EBC70002
:1017000072EB57720CFB08F734BFA2EBC702B2EBC7
:10171000C70261EB577115EB4C254FEA816141EA35
:1017200092114FEA82624FEAD13742EA901206FBE9
:1017300007FC44F100044FEA80604FEA1C4C0CFBAC
:101740000BF7D21B03FB0CF761EB07010CFB0EF749
:10175000B0EB074072EB17420CFB08F734BFA2EB6B
:101760000742B2EB074261EB174115EB1C154FEA3C
:10177000813141EA92414FEA823242EA90424FEA95
:1017800080304FEA0C7644F1000448EA03434EEA05
:101790000B484FF0000EB2EB080C71EB030724BFAF
:1017A000624639464EEB0E0E4FF0000B00185241C8
:1017B00049414BEB0B0BB2EB080C71EB03077BF1D0
:1017C000000B24BF624639464EEB0E0E4FF0000B65
:1017D0000018524149414BEB0B0BB2EB080C71EB7B
:1017E00003077BF1000B24BF624639464EEB0E0E19
:1017F00051EA020718BF46F0010616EB0E7655F1C6
:10180000000254F1000103D5BDE88901BDE800885C
:10181000BDE88901BDE80048B619524141EB01011C
:10182000A3F10103704780807F7E7D7C7B7A79788D
:10183000777676757473727171706F6E6E6D6C6C95
:101840006B6A6A6968686766666564646363626137
:101850006160605F5F5E5E5D5D5C5C5B5B5A5A59B8
:101860005958585757565655555554545353525224
:101870005251515050504F4F4F4E4E4D4D4D4C4C7C
:101880004C4B4B4B4A4A4A494949484848474747C5
:101890004746464645454544444444434343434202
:1018A000424242414141002B9C4630D477002BD02C
:1018B0001CB54FEA370703B44FF010004FF010018A
:1018C000BAF1000F06D0BCF1000FDCBF40F00800F9
:1018D00040F008014FF000000FBCBDE810400BF1D4
:1018E000010BBBF1010F08BF5FEA170722BF12F11E
:1018F000010211F101014FF0004143F1000300F03A
:10190000004043EA00007047F9D35708D0E746EAA1
:10191000064613F1400F4FEA16461FDD13F1200F64
:10192000DFBF16430A46002120335B42BED0C3F11D
:10193000200746EA064602FA07F74FEA164646EA45
:101940000706C3F1200722FA03F201FA07F721FA8A
:1019500003F14FF0000342EA0702A7E746EA020656
:1019600046EA06464FEA164646EA0106BCBF46EA84
:101970000646360C4FF000034FF000024FF0000116
:1019800094E72DE9804C9A46934670B491E838006C
:1019900007C831EA400C48BF34EA430C03D5FFF7CF
:1019A000E6FDFFF780FFF0BCBDE8008C2DE9804C20
:1019B0009A46934670B491E8380007C810F0804FFB
:1019C00008BF13F0804F03D100F005F8FFF76BFF5D
:1019D000F0BCBDE8008C20F07F4780EA030023F0D4
:1019E0007F4C07EB0C03A3F57C5300F00040A3F100
:1019F000FE0392F0000F00F0B38095F0000F00F0AE
:101A000077802DE901494FEA11404FEA144621EA57
:101A1000004800FB06FC24EA064708FB06F607FB25
:101A200008F800FB07F718EB06484CEB164C4FEA9A
:101A3000124B18EB07484FEA15464CEB174022EAC9
:101A40000B4E0BFB06FC25EA06470EFB06F607FBD2
:101A50000EFE0BFB07F71EEB064E4CEB164C4FF041
:101A600000061EEB074E4CEB174B18EB0B0840F132
:101A7000000018EB0E0B58EB000840F100008F1A25
:101A80004FF000013CBFC943661B14BFB5EB040C0B
:101A900000213CBFC943F61B4FEA17444EEA8E0EA5
:101AA00027EA04454FEA1C4704FB07622CEA074C6F
:101AB00005FB07F70CFB05F604FB0CFC16EB0746D1
:101AC00042EB174216EB0C4642EB1C421BEB0606A0
:101AD00058EB0202414146EA9E0601D5BDE8018964
:101AE000B619524141EB0101A3F10103BDE801899F
:101AF0004FEA14454FEA114724EA054621EA074C0C
:101B000005FB07F406FB07F70CFB06F105FB0CFCD5
:101B100011EB074144EB17444FEA124711EB0C411C
:101B200044EB1C4422EA074C05FB07F206FB07F7CF
:101B30000CFB06F605FB0CFC16EB074642EB1742C6
:101B400016EB0C4642EB1C456A1854F1000148BFE5
:101B50007047B619524141EB0101A3F101037047EF
:101B600095F0000F37D04FEA11424FEA144721EAAF
:101B7000024624EA074C02FB07F106FB07F70CFBC1
:101B800006F402FB0CFC14EB074441EB17414FEA4F
:101B9000154714EB0C4441EB1C4125EA074C02FBB2
:101BA00007F506FB07F70CFB06F602FB0CFC16EB31
:101BB000074645EB174516EB0C4645EB1C42121940
:101BC00051F1000148BF7047B619524141EB010184
:101BD000A3F1010370474FEA14454FEA114724EA85
:101BE000054621EA074C05FB07F106FB07F70CFB4E
:101BF00006F24FF0000605FB0CFC12EB074241EB2E
:101C0000174112EB0C4251EB1C4148BF7047921830
:101C100041EB0101A3F101037047000010B502F090
:101C20003DFD0F4801F006F802F051F902F032F9DB
:101C300010230CA20021042002F012FA02F032FA62
:101C400002F0BEFE09A002F049FE40F2DC5420463C
:101C500002F03CFA2046BDE8104002F049BA00000C
:101C60007C0000205354415254000000444542552A
:101C7000475F7072696E74665B4150505D3AE7B3BE
:101C8000BBE7BB9FE5889DE5A78BE58C96E5AE8C11
:101C9000E688907E0D0A000010B51C4C1CA0D4E90B
:101CA000031202F01BFE227820A12548FEF71EFB3E
:101CB0002348D4E9032323A14030FEF717FB082370
:101CC0001F4A0421002002F0CBF91D4A08234032AC
:101CD0000521002002F0C4F91E4840F24D6201883F
:101CE000914201D9618801808AB2A1888A4200D2DA
:101CF00001801948218902888A4200D9018002881E
:101D0000E1888A4200D2018010BD0000100000204E
:101D100044454255475F7072696E74665B4150502E
:101D20005D3A25642C25640D0A00000070726F6214
:101D30006C656D5F666C61673A2530326400000047
:101D4000CC030020783A2530346420793A253034A9
:101D500064000000280000202A000020FEE70000A8
:101D6000014800F0FBB8000088030020014800F0A3
:101D7000F5B8000044030020014800F0EFB800006F
:101D8000BC020020014800F0E9B800000003002078
:101D900030B590F840500124AC40C56B6C600468CD
:101DA00063604368102B036803D099600068C260C9
:101DB00030BD9A600068C16030BD704710B54FF407
:101DC000806000F079FA4FF4006000F075FA4FF48B
:101DD000805000F071FABDE810404FF4004000F070
:101DE0006BBA72B6FEE710B590F8211000220229F6
:101DF00005D00421816380F82020012010BD0168F6
:101E00000B6823F00E030B6001680B6823F00103DD
:101E10000B6090F84030C46B012101FA03F363605A
:101E200080F8211080F82020104610BD2DE9F05FC9
:101E300090F821100024022903D004218163012499
:101E400085E001680A6822F00E020A6001680A68EB
:101E500022F001020A603F4E3E4FB215DFF8F4C097
:101E6000DFF8F090DFF8ECA0DFF8E8B0DFF8E4E0AE
:101E70000168783F13011502ACF1640CA9F1500917
:101E8000AAF13C0AABF1280BAEF1140E4FF4801806
:101E9000B14227D9B9420ED0614512D049451DD073
:101EA000514518D0594518D0714501D1424615E029
:101EB000294EB14201D1012210E0274E1436B14221
:101EC00001D110220AE0244E2836B14206D0224A1F
:101ED0003C32914201D11A4600E02A461E49091FB0
:101EE0000A602BE0B94213D0614517D0494522D092
:101EF00051451DD059451DD0714501D142461AE0CA
:101F0000B14202D14FF0807215E0134EB14201D1BF
:101F1000012210E0104E1436B14201D110220AE025
:101F20000D4E2836B14206D00B4A3C32914201D1C7
:101F30001A4600E02A46074980394A60012180F8A4
:101F40002110002180F82010416B01B18847204604
:101F5000BDE8F09F80000240080402402DE9F05FD8
:101F6000C16B0A6801680B68046C4FF0040808FA3A
:101F700004F8844D844E854FDFF814C2DFF81492C4
:101F8000DFF814A2DFF814B2DFF814E218EA020F47
:101F900065D05FEA437862D50A68920603D40A687E
:101FA00022F004020A60DFF8F0814FF480620168D9
:101FB00008F1140813011402414524D9A9420DD097
:101FC000B1420FD0B9421AD0614515D0494515D05C
:101FD000514501D1120312E0594501D104220EE00E
:101FE000714501D140220AE06D4D1435A94206D059
:101FF0006B4A2832914201D11A4600E022466749D5
:10200000091F0A6029E0A94213D0B14215D0B94294
:1020100020D061451BD049451BD0514502D14FF41A
:10202000800217E0414502D14FF0806212E059452D
:1020300001D104220EE0714501D140220AE0584D41
:102040001435A94206D0564A2832914201D11A4687
:1020500000E022464B4908394A60C16A71E04FF0FE
:10206000020808FA04F818EA020F70D05FEA8378D1
:102070006DD50A68920606D40A6822F00A020A6040
:10208000012180F82110DFF810814FF400720168FF
:1020900008F1140813011402414524D9A9420DD0B6
:1020A000B1420FD0B9421AD0614515D0494515D07B
:1020B000514501D1120312E0594501D102220EE02F
:1020C000714501D120220AE0354D1435A94206D0D0
:1020D000334A2832914201D11A4600E022462F4964
:1020E000091F0A6029E0A94213D0B14215D0B942B4
:1020F00020D061451BD049451BD0514502D14FF43A
:10210000001217E0414502D14FF0007212E059452C
:1021100001D102220EE0714501D120220AE0204DBA
:102120001435A94206D01E4A2832914201D11A46DE
:1021300000E02246134908394A60002180F8201047
:10214000816A00291CD0BDE8F05F0847FFE7082539
:10215000A540154214D01A0712D50A6822F00E02C3
:102160000A6090F84020C36B012101FA02F25A6024
:10217000816380F82110002180F82010016BE0E7D6
:10218000BDE8F09F080002401C0002403000024001
:1021900044000240580002406C0002400804024023
:1021A0001C04024030B560B11A4B026814219A42F7
:1021B00009D2194B1344B3FBF1F1890001641749AB
:1021C0000AE0012030BD134B5B421344B3FBF1F135
:1021D000890001640F490839C163022180F8211088
:1021E000136843F6F0718B43F0E901142143D0E901
:1021F00002452C43214304692143446921438469F6
:102200002143194311600021416301224277017784
:10221000084630BD08040240F8FFFDBF0000024040
:1022200070B5044690F82000002501280CD001204C
:1022300084F8200094F821600020012E06D084F854
:1022400020000225284670BD022070BD022684F8B9
:102250002160A0632068066826F00106066020461B
:10226000FFF796FDE06A00282068016802D041F07F
:102270000E0106E021F0040101602068016841F0D0
:102280000A0101602068016841F001010160D9E79D
:1022900070B5044600F026F90546601C02D00448DB
:1022A0000078044400F01EF9401BA042FAD370BD30
:1022B0000000002070470000044910B50A6802427F
:1022C00002D00860FFF7F6FF10BD000014040140C3
:1022D0002DE9F84FDFF8C8910024A9F1040B23463B
:1022E0000F2709F1040AABF1040ED1E00125A54046
:1022F00006EA0502AA4276D1DFF8A8C14E68A6EB2D
:102300000C0866452BD00DDC032E34D005DC36B32B
:10231000012E19D0022E2FD11BE0112E16D0122E15
:102320002AD119E0B8F5881F19D006DCB8F5803F2E
:1023300015D0B8F5801F1FD111E0B8F5001F0ED0E1
:10234000B8F5041F18D10AE0CB6815E0CB681B1D57
:1023500012E0CB6808330FE0CB680C330CE08B68DD
:102360002BB1012B4FF0080303D0456104E0042397
:1023700002E0056100E00023FF2A01D8064601E0E3
:1023800000F104064FEA840501D9A5F12005D6F82D
:10239000008007FA05FC28EA0C0803FA05F548EA6C
:1023A0000508C6F800804D68ED0070D53E4DAE6959
:1023B00046F00106AE61AD6924F0030605F00105A3
:1023C00000953A4D06EB050CDCF80850A607360FD1
:1023D00007FA06F825EA0805DFF8D480404503D15E
:1023E0004FF0000825E052E0DFF8C880404502D1F8
:1023F0004FF001081DE0DFF8C080404502D14FF0EA
:10240000020816E0DFF8B480404502D14FF003081F
:102410000FE0DFF8AC80404502D14FF0040808E03F
:10242000DFF8A080404502D14FF0050801E04FF0F1
:10243000060808FA06F848EA0508CCF808804D684E
:10244000D9F80060ED024D4601D5164300E09643F1
:102450002E604D68DAF80060AD02554601D516438E
:1024600000E096432E604D68DBF80060AD035D46EA
:1024700001D5164300E096432E604D68DEF80060FB
:10248000ED03754601D5164300E096432E60641CAB
:102490000A681646E2407FF429AFBDE8F88F0000D5
:1024A000080401400000111000100240000001402B
:1024B00000080140000C01400010014000140140E0
:1024C00000180140001C0140C26821EA02030A40D2
:1024D00043EA0241016170470AB101617047090492
:1024E000FBE7000001488068704700000000002002
:1024F0000248816802781144816070470000002022
:10250000074810B5016841F010010160032000F098
:1025100075F8002000F006F800F024F8002010BD47
:102520000020024070B50D4D04464FF47A712878B2
:10253000B1FBF0F00A490968B1FBF0F000F0DCFAF9
:1025400048B9102C07D200222146501E00F036F860
:1025500000206C6070BD012070BD000000000020F4
:102560000C0000200C4808B5816941F0010181612F
:10257000816901F001010091C16941F08051C1619F
:10258000C06900F0805000900448416821F0E0618B
:1025900041F00071416008BD0010024000000140A0
:1025A000002809DB00F01F02012191404009800052
:1025B00000F1E020C0F8001170470000F0B40E4BAD
:1025C0001B680C46C3F30223C3F10705042D00D991
:1025D0000425191D072901D2002300E0DB1E012676
:1025E00006FA05F1491E214099409E40761E16408C
:1025F0003143F0BC02F03EBA0CED00E0064900F0B9
:10260000070208684FF6FF03184040EA0220034A19
:1026100010430860704700000CED00E00000FA0570
:102620002DE9F0470F46050061D0434E306800F0B9
:102630000700B84209D2306820F007003843306004
:10264000306800F00700B84251D128683B4C810740
:1026500012D5400703D5606840F4E06060602878D8
:10266000000703D5606840F4605060606068A96846
:1026700020F0F000084360602878C00728D0686820
:10268000012810D02168022810D0890700292EDAED
:10269000616821F0030101436160FFF723FF804679
:1026A00041F288390DE021688903EFE78901EDE700
:1026B000FFF718FFA0EB0801494502D90320BDE848
:1026C000F0876068696800F00C00B0EB810FEFD113
:1026D000306800F00700B8420BD9306820F00700DE
:1026E00038433060306800F00700B84201D0012064
:1026F000E5E72878400705D56068E96820F4E060E0
:10270000084360602878000706D56068296920F4CE
:10271000605040EAC100606000F038F86168084A23
:10272000C1F30311515CC8400649086006480068BF
:10273000FFF7F8FE0020C2E7002002400010024030
:10274000524B00080C0000200400002004480549FA
:1027500000684968044AC1F30221515CC8407047CF
:102760000C00002000100240624B0008044805499C
:1027700000684968044AC1F3C221515CC8407047EF
:102780000C00002000100240624B00080E4A516805
:102790000E4801F00C03042B11D0082B0FD10C486C
:1027A000C1F38343C903C05C0AD55168084AC1F329
:1027B0004041921E515C054A5043B0FBF1F0704716
:1027C00004494843704700000010024000127A009C
:1027D000424B000800093D002DE9F84F040070D07D
:1027E0002078C04DC00749D06868C0F38100012837
:1027F00007D06868C0F38100022809D16868C00367
:1028000006D52868800339D560680028E7D035E010
:102810006068B0F5803F0BD010B1B0F5A02F11D09B
:10282000286820F480302860286820F4802002E0A6
:10283000286840F480302860606890B1FFF752FE4D
:1028400006460AE0286840F480202860F0E700BFD0
:10285000FFF748FE801B642873D828688003F7D5EB
:102860000CE0FFF73FFE064605E000BFFFF73AFE2B
:10287000801B6428F0D828688003F7D420789A4E0B
:1028800080074FF001094FF0000839D5686810F053
:102890000C0F07D06868C0F38100022809D168686E
:1028A000C00306D42868800714D52069012808D100
:1028B00010E02069B0B1C6F80090FFF713FE07469C
:1028C00005E00AE1FFF70EFEC01B0228C4D8286805
:1028D0008007F7D52868616920F0F80040EAC10058
:1028E00028600DE0C6F80080FFF7FCFD074604E015
:1028F000FFF7F8FDC01B022823D828688007F7D40B
:10290000207800072CD57948A169D9B1C0F800908A
:10291000FFF7E8FD074604E0FFF7E4FDC01B0228CF
:102920000FD8686A8007F7D571484FF4FA510068EC
:10293000B0FBF1F0009000BF0098411E0091FAD268
:102940000EE080E0C0F80080FFF7CCFD074604E011
:10295000FFF7C8FDC01B022875D8686A8007F7D446
:102960002078400760D5E8690027C00008D4E869EE
:1029700040F08050E861E869012700F08050009045
:102980005C480168C90513D40168834641F480712D
:102990000160FFF7A7FD824606E000BFFFF7A2FD3A
:1029A000A0EB0A0064284ED8DBF80000C005F5D57E
:1029B000E06801280AD008B1052813D0286A20F061
:1029C00001002862286A20F0040002E0286A40F032
:1029D00001002862E06841F2883B98B1FFF782FD70
:1029E00082460BE0286A40F004002862EEE700BF50
:1029F000FFF778FDA0EB0A0159455AD8286A8007ED
:102A0000F6D50CE0FFF76EFD824605E0FFF76AFDA4
:102A1000A0EB0A0159454CD8286A8007F6D41FB1AB
:102A2000E86920F08050E861E06988B36968C1F323
:102A30008101022944D00228C6F8608004D0FFF743
:102A400051FD044638E034E0FFF74CFD074604E052
:102A5000FFF748FDC01B02282BD828688001F7D457
:102A6000206AB0F5803F05D16868A16820F4003085
:102A700008436860D4E908010843696821F47411C7
:102A800008436860C6F86090FFF72CFD044606E036
:102A900025E000BFFFF726FD001B022809D82868A3
:102AA0008001F7D51BE000BFFFF71CFD001B0228CB
:102AB00002D90320BDE8F88F28688001F4D40EE025
:102AC0000128F7D06868226A00F48031914204D16D
:102AD000616A00F47010884201D00120EAE700200A
:102AE000E8E7000000100240000042428004424239
:102AF0000C0000200070004010B5401EB0F1807F37
:102B000001D3012010BD4FF0E02460610F21601758
:102B100001F0B0FF0020A06107202061002010BD5F
:102B20007047704770B590F83C20012A2CD00124E2
:102B300080F83C40022280F83D2003685A689D6876
:102B400022F070060A6832435A60104B02689A42BB
:102B50000ED00F4B9A420BD0B2F1804F08D00D4BE4
:102B60009A4205D00C4B9A4202D00C4B9A4204D1A7
:102B7000496825F080031943916080F83D400021A9
:102B800080F83C10084670BD022070BD002C01404A
:102B9000003401400004004000080040000C0040E8
:102BA00010B5040003D094F83D0010B107E00120F7
:102BB00010BD002084F83C00204600F01FF80220E1
:102BC00084F83D00211D206801F0DEFA012084F820
:102BD000460084F83E0084F83F0084F8400084F802
:102BE000410084F8420084F8430084F8440084F8EB
:102BF000450084F83D00002010BD000008B50068C5
:102C0000B0F1804F12D10A48C16941F00101C161A0
:102C1000C069002200F00100009001211C20FFF794
:102C2000CDFCBDE808401C20FFF7BABC08BD000081
:102C30000010024090F83D10012901D0012070479A
:102C4000022180F83D100168CA6842F00102CA60A2
:102C500000680E4988420ED00D4988420BD0B0F171
:102C6000804F08D00B49884205D00B49884202D0DA
:102C70000A49884204D1816801F00701062903D07E
:102C8000016841F00101016000207047002C014003
:102C9000003401400004004000080040000C0040E7
:102CA00070B5044690F83C000025012817D0012695
:102CB00084F83C60022084F83D002068826822F09D
:102CC000770222F47F4282600868502838D00DDCF9
:102CD00020284FD005DC90B3102811D14AE0022003
:102CE00070BD302846D040280AD13BE060282FD064
:102CF00070280DD0B0F5805F03D0B0F5005F12D022
:102D0000012584F83D60002084F83C00284670BD11
:102D1000CB68D1E90121206801F089FA2068816837
:102D200041F0770109E0CB68D1E90121206801F089
:102D30007EFA2068816841F480418160E1E719E012
:102D4000CA684968206801F047FB5021206806E006
:102D5000CA684968206801F050FB6021206801F0D2
:102D600070FACEE7CA684968206801F035FB402157
:102D70002068F4E7226801461046F0E72DE9F041AB
:102D80000D46040003D094F83D0018B108E001207E
:102D9000BDE8F081002084F83C00204600F040F8B7
:102DA000022084F83D002068816844F207029143C4
:102DB0008160211D206801F0E7F92268906891691F
:102DC000166A2B68AF69034340F20330814341EA3E
:102DD0000721A868EF6908434FF6FC418843E9687A
:102DE00040EA0720014328692F6A000140EA0730C2
:102DF000084369686D6926F0220646EA05152943ED
:102E000093602268906154F8460B0162012004F837
:102E10001F09E0752076E0762077A0750020B7E7DF
:102E200000B585B0002100910191029103911B4AE8
:102E300001681B48914215D1816941F400618161AB
:102E4000816901F400610491816941F004018161AB
:102E50008069694600F0040004904FF440700090CF
:102E6000104816E0104A914215D1816941F4005191
:102E70008161816901F400510491816941F010017F
:102E800081618069694600F010000490C0200090C4
:102E90000648FFF71DFA05B000BD0000002C0140F8
:102EA00000100240000801400034014000100140C1
:102EB000704770B50446006801694FF00005C943CA
:102EC000890715D4C168C943890711D4E91E016176
:102ED00001202077206880698007204602D0FFF714
:102EE000E7FF04E000F0E0F8204600F085F92577E0
:102EF00020680169C943490717D4C168C943490714
:102F000013D46FF0040101610220207720688069EA
:102F100010F4407F204602D0FFF7CAFF04E000F023
:102F2000C3F8204600F068F9257720680169C94395
:102F3000090716D4C168C943090712D46FF0080104
:102F40000161042020772068C0698007204602D0F4
:102F5000FFF7AEFF04E000F0A7F8204600F04CF9C0
:102F6000257720680169C943C90617D4C168C943D8
:102F7000C90613D46FF01001016108202077206882
:102F8000C06910F4407F204602D0FFF791FF04E0B3
:102F900000F08AF8204600F02FF9257720680169B3
:102FA000C943C90708D1C168C943C90704D1891EEB
:102FB0000161204600F07CF920680169C9430906D7
:102FC00009D4C168C943090605D46FF080010161C5
:102FD0002046FFF7A5FD20680169C943490609D4C9
:102FE000C168C943490605D46FF04001016120461C
:102FF00000F070F920680169C94389060BD4C168E3
:10300000C943890607D46FF0200101612046BDE85D
:103010007040FFF786BD70BD30B585B000210091CE
:1030200001910291039102681B49032502241B4868
:10303000B2F1804F22D01A4B9A421DD18A6942F0D8
:1030400004028A618A6902F0040204928A6942F0E9
:1030500008028A618969039401F008010491C02182
:10306000CDE900146946FFF733F9CDE9005469460C
:103070000C480394FFF72CF905B030BD8A6942F083
:1030800004028A618969CDE9005401F00401CDE9A7
:1030900003416946EEE700000010024000080140CD
:1030A00000040040000C0140704770B5044690F8E1
:1030B0003C0000260D4601280FD0012084F83C007A
:1030C0006AB1042A1DD0082A2FD00C2A3FD001262D
:1030D000002084F83C00304670BD022070BD20689E
:1030E00001F0B8F82068816941F008018161206829
:1030F000816921F004018161206881692A69114395
:1031000011E0206801F0D6F82068816941F400617F
:1031100081612068816921F4806181612068816911
:103120002A6941EA02218161D2E7206801F0F8F8BA
:103130002068C16941F00801C1612068C16921F0BE
:103140000401C1612068C1692A69114311E0206846
:1031500001F01AF92068C16941F40061C161206879
:10316000C16921F48061C1612068C1692A6941EAAD
:103170000221C161ACE710B5040003D094F83D0012
:1031800010B107E0012010BD002084F83C0020466B
:1031900000F01EF8022084F83D00211D206800F098
:1031A000F3FF012084F8460084F83E0084F83F00D5
:1031B00084F8400084F8410084F8420084F8430019
:1031C00084F8440084F8450084F83D00002010BDD8
:1031D00008B500680649884208D10648C16941F02F
:1031E0000201C161C06900F00200009008BD00004A
:1031F00000040040001002407047000010B5044673
:10320000022249B104290ED0082913D094F84100B4
:10321000012816D0012010BD94F83E000128F9D1F4
:1032200084F83E200FE094F83F000128F2D184F8A2
:103230003F2008E094F840000128EBD184F84020BA
:1032400001E084F841200122206800F0E3FF1349E7
:103250002068134A884201D0904203D1436C43F462
:1032600000434364206888420DD090420BD0B0F1F7
:10327000804F08D00B49884205D00B49884202D0C4
:103280000A49884204D1816801F00701062903D068
:10329000016841F001010160002010BD002C0140D7
:1032A000003401400004004000080040000C0040D1
:1032B0000649884208D106494878401CC0B2487087
:1032C0000A2801D100F090BB704700007C0000206C
:1032D00010000020704738B5044690F842002028BE
:1032E00001D0022038BD61B15AB101202063002015
:1032F0006063204601F096FA0028F3D1216B012982
:1033000001D0012038BD21680A6849680091216810
:103310000C3151E8002F42F0100241E80023002B4D
:10332000F5D138BD054B02689A4201D101F0CAB807
:10333000034B9A4201D101F0AFB870470038014009
:1033400000440040054A0168914201D101F086B86D
:10335000034A914201D101F062B870470038014040
:1033600000440040F8B5016804460868CA684B6923
:1033700010F00F0F4FF0000559D003F0010602F4D2
:103380009077374365D0C10705D0D10503D5616C6F
:1033900041F001016164410705D5D90703D0616C93
:1033A00041F002016164810705D5D90703D0616C42
:1033B00041F004016164010707D502F020013143A7
:1033C00003D0616C41F008016164616C00293AD05E
:1033D000800604D5900602D5204601F066F92068E3
:1033E0004069616CC0F38010090700D460B32046C7
:1033F00001F01FF920684069400621D5206814308B
:1034000050E8001F21F0400140E80012002AF5D1E9
:10341000E06BA8B16D494163E06BFEF707FD002842
:1034200011D0E06B416B01B0BDE8F0400847830666
:103430000FD593060DD52046BDE8F84001F035B90B
:103440002046FFF77FFFF8BD2046FFF77BFF65644E
:10345000F8BD266B2023012E7CD1C6067AD5D60670
:1034600078D508684868009048694FF00206400621
:1034700040D5E16B086840680004000CE8D0A28DDC
:103480008242E5D9E085886920282DD020680C305B
:1034900050E8001F21F4807140E80012002AF5D1A5
:1034A0002068143050E8001F21F0010140E80012AC
:1034B000002AF5D12068143050E8001F21F04001A7
:1034C00040E80012002AF5D184F8423025632068D4
:1034D0000C3050E8001F21F0100140E80012002AD3
:1034E000F5D1E06BFEF77FFC6663A08DE18D401A9D
:1034F00081B22AE0A08DE18D401A81B2E08D0028D2
:10350000A6D00029A4D022680C3252E8000F20F483
:10351000907042E80007002FF5D12068143050E881
:10352000002F22F0010240E80027002FF5D184F897
:103530004230256320680C3050E8002F22F0100242
:1035400040E80023002BF5D166632046FFF7EAFE32
:10355000F8BDFFE705062BD5150629D594F84100DF
:103560002128F5D1A068B0F5805F01D12069B0B104
:10357000206A411C2162216800784860E08C401E6E
:103580000004000CE084E3D12068C16821F08001D0
:10359000C1602068C16841F04001C160D8E7206A7D
:1035A0000088C0F308004860206A801C2062E5E7BC
:1035B0004006CDD55006CBD5CA68204622F0400241
:1035C000CA6084F8413000F0C7F9C1E7E944000857
:1035D00070B5040004D094F84100002510B106E055
:1035E000012070BD84F84050204600F023F82420CC
:1035F00084F841002068C16821F40051C160204670
:1036000001F0B4F82068016921F49041016120685B
:10361000416921F02A0141612068C16841F40051EB
:10362000C1606564202084F8410084F8420065632D
:10363000002070BD2DE9F04F85B000240094019466
:10364000029403940546984F036898480221032288
:10365000974E4FF4806C4FF4006ABB421CD1C36993
:1036600043F40023C361C36903F400230493836913
:1036700043F0100383618069CDE900C100F01000C0
:10368000CDE9032069463046FEF722FECDE900A4CD
:1036900069463046029429E0864F4FF00409BB4248
:1036A00029D1C36943F48013C361C36903F4801350
:1036B0000493836943F010038361836903F010036B
:1036C0000493836943F0200383618069039200F0CF
:1036D00020000490B814CDE9000169463046FEF799
:1036E000F7FDCDE90094694673480294FEF7F0FDBA
:1036F00005B0BDE8F08FDFF8C481714E80274345E7
:103700002CD1836943F480438361836903F480434C
:103710000493836943F0080383618069039200F096
:10372000080004904020CDE9000169463046FEF7CC
:10373000CFFDCDE90074694630460294FEF7C8FD1E
:103740006048416841F0E06141F0040141600022BD
:1037500002212520FEF732FF252051E0DFF86881A5
:103760004FF0100B43454ED1C36943F40033C3619E
:10377000C36903F400330493836943F00403836152
:103780008069CDE9009100F00400CDE903204F4E9F
:1037900069463046FEF79CFD0820CDE900046946E5
:1037A00030460294FEF794FD4A4E4948C6E90004AB
:1037B000C6E9024734617461B4613046F461FEF7D2
:1037C000F1FC08B1FEF70DFBEE637562414E404817
:1037D00044361430C6E9024734617461B461F4615F
:1037E000C6E9000B3046FEF7DDFC08B1FEF7F9FA3A
:1037F000AE630022012126207562FEF7DFFE26203F
:10380000FEF7CEFE74E7DFF8D0804345FAD1C369F6
:1038100043F48023C361C36903F480230493836961
:1038200043F0080383618069CDE900C100F008001E
:10383000CDE9032069463046FEF74AFDCDE900A4F4
:10384000694630460294FEF743FD224E20488836F2
:103850003C38C6E90004C6E9024734617461B461CA
:103860003046F461FEF79EFC08B1FEF7BAFAEE634B
:103870007562184E1648CC365038C6E90247346196
:103880007461B461F461C6E9000B3046FEF78AFC4E
:1038900008B1FEF7A6FAAE63002201212720756267
:1038A000FEF78CFE2720ABE7004C004000100240E2
:1038B0000010014000500040001401400038014059
:1038C000000C01400000014000440040000801409D
:1038D0006C000240BC020020004800407047704766
:1038E00070B5044690F84100202801D0022070BD38
:1038F00049B342B32162A284E284002060642123A0
:1039000084F84130A56B114BAB62A56B104BEB6299
:10391000A56B104B2B63A36B5863256813462A1DB8
:10392000A06BFEF77DFC21686FF040000860206806
:10393000143050E8001F41F0800140E80012002AD6
:10394000F5D1002070BD012070BD0000E7450008E2
:1039500029460008F944000870477047FEE7000058
:1039600070B501220B4D540221462846FEF7B4FDE6
:103970000122160231462846FEF7AEFD00223146EE
:103980002846FEF7A9FD21462846BDE870400022E2
:10399000FEF7A2BD000C014070B5094C0122510296
:1039A0002046FEF799FDA515002229462046FEF780
:1039B00093FD29462046BDE870400122FEF78CBDEC
:1039C000000C014070B50122064D540221462846E4
:1039D000FEF782FD21462846BDE870400022FEF732
:1039E0007BBD0000000C01404FF400510148FEF780
:1039F0006BBD0000000C0140154808B5416941F05D
:103A0000010141614069002200F00100009011466F
:103A10000C20FEF7D3FD0C20FEF7C2FD002211465C
:103A20000D20FEF7CBFD0D20FEF7BAFD002211465A
:103A30001020FEF7C3FD1020FEF7B2FD0022114654
:103A40001120FEF7BBFDBDE808401120FEF7A8BD20
:103A5000001002402DE9F04385B00024394800945D
:103A6000019402940394816941F01001816181699C
:103A700001F010010491816941F0200181618169A7
:103A800001F020010491816941F0040181618169A3
:103A900001F004010491816941F0080181618069AC
:103AA000294F00F008004FF4604504900022294699
:103AB0003846FEF711FDDFF8949000223021484689
:103AC000FEF70AFDDFF8888000224FF40C514046D3
:103AD000FEF702FD01224FF440414046FEF7FCFC98
:103AE0000095022601250396CDE901546946384622
:103AF000FEF7EEFB3020CDE90005CDE90246694630
:103B00004846FEF7E5FB4FF46340CDE90005CDE9FB
:103B1000024669464046FEF7DBFB4FF41C4000902E
:103B20000C48CDE9010469464846FEF7D1FB002266
:103B300001212820FEF742FD2820FEF731FD05B0C7
:103B4000BDE8F08300100240001001400008014071
:103B5000000C01400000111010B58CB02421684603
:103B6000FCF726FD00241648099414490A94C0E97C
:103B700000144FF6FF71C0E90241046144618461A1
:103B80000120CDE90004CDE902040494CDE905400B
:103B9000079469460A480894FFF7F0F808B1FEF761
:103BA00020F9099409A906480A94FEF7BBFF0028EA
:103BB00001D0FEF716F90CB010BD0000002C01403A
:103BC0003400002010B58EB00024079408940994A6
:103BD0000A940B941C2168460C94FCF7E9FC2248DB
:103BE0004FF08041016040F2CF21C0E90114632110
:103BF000C0E9031480218161FEF7D2FF08B1FEF70E
:103C0000F0F84FF48050079007A91748FFF748F8DD
:103C100008B1FEF7E6F81448FFF7ADFA08B1FEF771
:103C2000E0F80B940BA910480C94FEF77BFF08B149
:103C3000FEF7D7F86020CDE900040294002269461F
:103C400009480494FFF731FA08B1FEF7CAF80422D4
:103C500069460548FFF729FA08B1FEF7C2F802489D
:103C6000FFF7DAF90EB010BD7C00002010B58AB065
:103C7000002407941C2168460894FCF799FC22480C
:103C8000204901604721C0E9011444F61F61C0E9E1
:103C900003148461FFF76FFA08B1FEF7A2F80794E6
:103CA00007A919480894FEF73DFF08B1FEF799F8F7
:103CB0006020CDE900040294002269461248049471
:103CC000FFF7F3F908B1FEF78CF8042269460E48B5
:103CD000FFF7EBF908B1FEF784F8082269460A48B5
:103CE000FFF7E3F908B1FEF77CF80C2269460648B5
:103CF000FFF7DBF908B1FEF774F80348FFF78CF91A
:103D00000AB010BD00040040C400002010B58CB003
:103D100024216846FCF74CFC0024164809941449F9
:103D20000A94C0E900144FF6FF71C0E90241046132
:103D3000446184610120CDE90004CDE902040494CA
:103D4000CDE90540079469460A480894FFF716F83C
:103D500008B1FEF746F8099409A906480A94FEF747
:103D6000E1FE002801D0FEF73CF80CB010BD0000C9
:103D7000003401400C0100200C4810B50A490160D4
:103D80004FF4E1314160002181600C22C160C0E943
:103D900004128161C161FFF71BFC002803D0BDE85C
:103DA0001040FEF71EB810BD004C0040540100202A
:103DB0000C4810B50A4901604FF4E131416000211F
:103DC00081600C22C160C0E904128161C161FFF70A
:103DD000FFFB002803D0BDE81040FEF702B810BD7D
:103DE000005000409C0100200C4810B50A490160B9
:103DF0004FF4E1314160002181600C22C160C0E9D3
:103E000004128161C161FFF7E3FB002803D0BDE824
:103E10001040FDF7E6BF10BD00380140E40100206E
:103E20000C4810B50A4901604FF4E13141600021AE
:103E300081600C22C160C0E904128161C161FFF799
:103E4000C7FB002803D0BDE81040FDF7CABF10BD76
:103E5000004400402C0200200C4810B50A490160C3
:103E60004FF4E1314160002181600C22C160C0E962
:103E700004128161C161FFF7ABFB002803D0BDE8EC
:103E80001040FDF7AEBF10BD004800407402002096
:103E9000FEE7FEE770B50024002104F1B00000F059
:103EA000FAF80021084600F0F6F80021102000F092
:103EB000F2F800250121002000F0EDF86D1CEDB2B4
:103EC000802DF7D3641CE4B2082CE5D370BD10B587
:103ED0000021AE2000F0DFF80021084600F0DBF8FA
:103EE0000021102000F0D7F80021402000F0D3F886
:103EF0000021B02000F0CFF80021812000F0CBF8A5
:103F00000021FF2000F0C7F80021A12000F0C3F835
:103F10000021A62000F0BFF80021A82000F0BBF887
:103F200000213F2000F0B7F80021C82000F0B3F8CE
:103F30000021D32000F0AFF80021084600F0ABF8D4
:103F40000021D52000F0A7F80021802000F0A3F880
:103F50000021D82000F09FF80021052000F09BF8F8
:103F60000021D92000F097F80021F12000F093F80B
:103F70000021DA2000F08FF80021122000F08BF8E9
:103F80000021DB2000F087F80021302000F083F8CA
:103F900000218D2000F07FF80021142000F07BF834
:103FA0000021BDE81040AF2000F075B810B50A46FA
:103FB0000446002102F1B00000F06DF8102040EA44
:103FC0001410002100F067F804F00F00BDE8104065
:103FD000002100F060B800002DE9F041203A0024F3
:103FE0000D468046D6B27F2803D900208D1C80461E
:103FF000EDB2102B294610D0FFF7D8FF164906EB7B
:10400000460001EB40050121285D00F044F8641CE6
:10401000E4B2062CF7D3BDE8F081FFF7C7FF0F4FDE
:1040200004EB06100121385C00F035F8641CE4B2A2
:10403000082CF5D36D1CE9B24046FFF7B7FF00240A
:1040400004EB061038440121007A00F024F8641CC7
:10405000E4B2082CF4D3DEE76A4B0008924D000866
:104060002DE9F041984617460E46044600250DE01E
:10407000434631462046FFF7AFFF0834E4B2782CC0
:1040800002D90024B61CF6B26D1CEDB27A5D002A8E
:10409000EED1BDE8F081C0B209B100F07ABC00F009
:1040A00061BC000010B500210648FFF7A7F8042105
:1040B0000448FFF7A3F80348002102685163006831
:1040C000816310BDC40000207047000006490978D4
:1040D000012907D044F62061884200D908460349E7
:1040E000096848637047000026000020C4000020D3
:1040F00006490978012907D044F62061884200D991
:1041000008460349096888637047000026000020BC
:10411000C40000207047FEF7EBB930B58FB02821FE
:104120006846FCF745FA14210AA8FCF741FA012178
:104130000804CDE900100024029402250491CDE981
:1041400007504FF4E01009906846FEF745FB08B1B0
:1041500072B6FEE70F20CDE90A054FF48060CDE985
:104160000C4002210AA80E94FEF75AFA002801D04A
:1041700072B6FEE70FB030BD704700000148FEF791
:1041800098BE00007C000020F0B502681C4B1D4D5D
:104190001D4E1E4F1E4C4FF0804C984209D0A0423D
:1041A00007D0604505D0A84203D0B04201D0B84244
:1041B00004D122F0700E4A6842EA0E02984209D0F9
:1041C000A04207D0604505D0A84203D0B04201D03C
:1041D000B84203D122F44075CA682A434D6922F0DF
:1041E00080022A4302608A68C2620A688262984238
:1041F00001D0A04201D10969016301214161F0BDF3
:10420000002C01400004004000080040000C004069
:104210000034014010B501F01F030121046A9940E8
:104220008C430462016A9A401143016210BD10B5CB
:10423000846842EA032224F47F440A4322438260D2
:1042400010BD826822F070020A4342F007018160CB
:1042500070470000F0B5036A026A22F001020262B0
:1042600042688469124E24F073050C682C4323F0D5
:1042700002058B682B430D4DA84201D0B04205D1F9
:1042800023F00807CB683B4323F00403A84201D086
:10429000B04205D14D6922F4407215438A692A4320
:1042A00042608461496841630362F0BD002C0140B3
:1042B00000340140F0B5026A036A23F01003036280
:1042C000436884690D6824F4E64444EA05248D6853
:1042D00022F0200242EA05120F4D104EA84201D0F2
:1042E000B04206D1CF6822F0800242EA071222F0E3
:1042F0004002A84201D0B04207D14D6923F4406387
:1043000043EA85038D6943EA850343608461496814
:1043100081630262F0BD0000002C014000340140C6
:10432000F0B5026A036A23F4807303624368C469C8
:1043300022F4007224F073050C68124E2C438D6831
:1043400042EA05220E4DA84201D0B04206D1CF6804
:1043500022F4006242EA072222F48062A84201D0DD
:10436000B04207D14D6923F4405343EA05138D69E8
:1043700043EA05134360C4614968C1630262F0BD4A
:10438000002C01400034014030B5046A026A22F476
:10439000805202624268C3690D6823F4E64343EA2F
:1043A00005238D6824F4005444EA0534084DA842DE
:1043B00002D0084DA84204D14D6922F4804242EA5D
:1043C00085124260C36149680164046230BD000027
:1043D000002C01400034014010B5036A046A24F047
:1043E00001040462846924F0F00444EA021423F016
:1043F0000A020A438461026210BD10B5036A046AAE
:1044000024F010040462846923F0A00324F47044AF
:1044100044EA023243EA01118261016210BD006880
:104420000168406870470000094810B50068C1681D
:1044300041F02001C160012206490548FEF74BFF0B
:1044400005480068016821F00401016010BD00000A
:104450002C02002024000020BC020020006801681B
:1044600040687047094810B50068C16841F02001F4
:10447000C160012206490548FEF72DFF0548006886
:10448000016821F00401016010BD000074020020E9
:104490003000002044030020074910B501F50070EA
:1044A000FCF762F80549012002024870BDE810409F
:1044B00001490348FEF70FBF4C04002024000020F0
:1044C0002C02002010B50A4605490648FFF708FAF5
:1044D000BDE810404FF4807201490248FEF7FBBE70
:1044E0008C0600207402002010B5406A0021C185AE
:1044F000C184FEF727FF10BD70B5446A206840698B
:1045000094F84110C0F3C0100025212904D118B13E
:10451000E584204600F0B4F82068406994F8421021
:10452000C0F38010222904D118B1E585204600F09F
:1045300080F8606C40F0100060642046FEF702FFD7
:1045400070BD10B50146406A096809684FF0000265
:1045500089062ED4C28501680C3151E8003F23F44E
:10456000807341E80034002CF5D10168143151E822
:10457000003F23F0010341E80034002CF5D101682D
:10458000143151E8003F23F0400341E80034002C8F
:10459000F5D1202180F84210016B012909D1016871
:1045A0000C3151E8003F23F0100341E80034002CA7
:1045B000F5D14263016B012902D0FFF78FF910BDDD
:1045C000818DFEF7AFFE10BD10B5406A0121416339
:1045D000016B012902D0FFF782F910BD818D4908D6
:1045E000FEF7A0FE10BD10B50146406A09680968D3
:1045F000890616D40021C1840168143151E8002FC6
:1046000022F0800241E80023002BF5D101680C3133
:1046100051E8002F42F0400241E80023002BF5D181
:1046200010BDFFF799F910BD10B5406AFFF795F975
:1046300010BD01680C3151E8002F22F4907241E85E
:104640000023002BF5D10168143151E8002F22F02E
:10465000010241E80023002BF5D1016B012909D1AA
:1046600001680C3151E8002F22F0100241E80023CC
:10467000002BF5D1202180F8421000210163704702
:1046800001680C3151E8002F22F0C00241E80023FC
:10469000002BF5D1202180F84110704710B5FFF7AD
:1046A000E1FEBDE81040FFF7BFBE08B590F842102C
:1046B000222901D0022008BD82684FF480539A421B
:1046C00001D1016921B1816A9A421BD04AB10AE045
:1046D0000268816A5268C2F308020A80816A891CF2
:1046E00008E0026972B10268526802F07F020A7043
:1046F000816A491C8162C18D491E0904090CC1856A
:1047000003D01BE002685268F1E70168CA6822F032
:104710002002CA600168CA6822F48072CA60016817
:104720004A6922F001024A61202180F842100021EA
:104730004163026B012A03D0FFF7D0F8002008BDC7
:10474000016301680C3151E8002F22F0100241E8AA
:104750000023002BF5D101680A68D20602D50A6849
:1047600049680091818DFEF7DDFDE7E770B50446ED
:1047700000680169E26821F4405111430161216937
:10478000A0680843616908432168CA6841F20C6364
:104790009A430243CA6020684169A26921F44071CA
:1047A000114341611E492068884202D1FDF7DEFFB6
:1047B00001E0FDF7CBFF00EBC00101EB00126068E8
:1047C00064218000B2FBF0F3B3FBF1F36FF0180645
:1047D0007343B2FBF0F5B2FBF0F605EB8305322331
:1047E00003EB0515B5FBF1F5B6FBF1F605F0F005A9
:1047F00005EB0615B2FBF0F6B2FBF0F0B0FBF1F002
:104800006FF01802504306EB800003EB0010B0FB82
:10481000F1F0216800F00F002844886070BD0000AE
:104820000038014038B58162044682850020134675
:104830006064222284F84220E56B1B4AAA62E56B81
:104840001A4AEA62E56B1A4A2A63E26B50630A4627
:104850002168E06B091DFDF7E3FC206801684068F2
:104860000090206948B120680C3050E8001F41F4E6
:10487000807140E80012002AF5D12068143050E819
:10488000001F41F0010140E80012002AF5D1206824
:10489000143050E8001F41F0400140E80012002AA7
:1048A000F5D1002038BD000043450008C945000887
:1048B000F94400080148FEF755BD0000E40100205E
:1048C0000148FEF74FBD00002C0200200148FEF712
:1048D00049BD000074020020FEE700000FB440F262
:1048E000011110B503AB0648029AFBF7E5FC82B252
:1048F00003490448FEF7F4FF10BC5DF814FB000008
:104900008C070020740200202DE9F041144F04466A
:104910004FF40076002231463846FDF7DDFD0025D4
:104920004FF4807804F08000802816D000224146A1
:104930003846FDF7D1FD6006040E012231463846A7
:10494000FDF7CAFD002231463846FDF7C5FD6D1C56
:10495000EDB2082DE6D3BDE8F0810122E7E70000C3
:10496000000C014010B50446FEF7FAFF7820FFF76F
:10497000CBFFFFF727F80020FFF7C6FFFFF722F86D
:104980002046FFF7C1FFFFF71DF8BDE81040FFF715
:1049900003B810B50446FEF7E3FF7820FFF7B4FF35
:1049A000FFF710F84020FFF7AFFFFFF70BF82046A6
:1049B000FFF7AAFFFFF706F8BDE81040FEF7ECBFCF
:1049C00010B5054C0021208800F008F86088BDE88B
:1049D0001040002100F01EB8280000202DE9F04111
:1049E0000B4C05460F46A088854201D901260AE0F6
:1049F0004FF0FF3607E0304480B2A080FFF766FB3F
:104A00003846FDF745FCA088A842F4D1BDE8F08106
:104A1000280000202DE9F0410B4C05460F46E088A8
:104A2000854201D901260AE04FF0FF3607E0304405
:104A300080B2E080FFF75CFB3846FDF729FCE08898
:104A4000A842F4D1BDE8F08128000020490050EAD6
:104A5000C12018BF04204A0D18BF40F0010040F2E9
:104A6000FF72B2EB515F08BF40F00200012808BF9F
:104A7000052070470907090E002804DB00F1E0203B
:104A800080F80014704700F00F0000F1E02080F87B
:104A9000141D704730380A2801D2012070470020C9
:104AA0007047FDF72DFDFFF738FBFEF7D3FFFEF74C
:104AB000A3FFFFF751F8FFF785F8FFF7D7F8FFF7E7
:104AC00025F9FFF759F9FFF773F9FFF78DF9FFF7AC
:104AD000A7F9FFF7C1F9FDF7A1F8FDF7DDF8FCE74D
:104AE00010B500290AD00878002807D00548784476
:104AF000FCF784FC002801D0002010BD0248784457
:104B000010BD0000B2090000AA09000010B500297C
:104B10000AD00878002807D005487844FCF76EFCD6
:104B2000002801D0002010BD0248784410BD0000CC
:104B3000A20900009A090000FCF76EB8FCF7A2B9C0
:104B4000010202030405060708090A0B0C0D0E0FEB
:104B5000101000000000000000000102030406071E
:104B6000080900000000010203040000000000002A
:104B70000000002F000000000700070000147F1451
:104B80007F1400242A7F2A1200626408132300364F
:104B90004955225000000503000000001C2241007E
:104BA000000041221C000014083E08140008083EC2
:104BB0000808000000A060000008080808080000BD
:104BC00060600000002010080402003E5149453E8C
:104BD0000000427F400000426151494600214145AA
:104BE0004B31001814127F10002745454539003C11
:104BF0004A494930000171090503003649494936DF
:104C000000064949291E00003636000000005636CD
:104C100000000008142241000014141414140000B1
:104C20004122140800020151090600324959513E3F
:104C3000007C1211127C007F49494936003E4141F7
:104C40004122007F4141221C007F49494941007FA8
:104C500009090901003E4149497A007F0808087F97
:104C60000000417F4100002040413F01007F0814C7
:104C70002241007F40404040007F020C027F007FC5
:104C80000408107F003E4141413E007F09090906AA
:104C9000003E4151215E007F0919294600464949DD
:104CA00049310001017F0101003F4040403F001FAA
:104CB0002040201F003F4038403F00631408146329
:104CC00000070870080700615149454300007F4113
:104CD000410000552A552A55000041417F0000043B
:104CE0000201020400404040404000000102040074
:104CF000002054545478007F4844443800384444D9
:104D0000442000384444487F003854545418000864
:104D10007E0901020018A4A4A47C007F0804047882
:104D20000000447D4000004080847D00007F10280A
:104D300044000000417F4000007C04180478007C9F
:104D40000804047800384444443800FC242424181F
:104D50000018242418FC007C08040408004854545B
:104D6000542000043F444020003C4040207C001C74
:104D70002040201C003C4030403C00442810284487
:104D8000001CA0A0A07C004464544C4414141414CF
:104D900014140000000000000000000000000000EB
:104DA0000000000000F800000000000000333000A8
:104DB000000000100C06100C0600000000000000AF
:104DC000000040C07840C0784000043F04043F0425
:104DD0000400007088FC08300000001820FF211E2D
:104DE0000000F008F000E018000000211C031E2164
:104DF0001E0000F00888700000001E2123241927DF
:104E0000211010160E00000000000000000000003D
:104E10000000000000E01804020000000007182055
:104E2000400000020418E0000000004020180700C5
:104E30000000404080F0804040000202010F01026B
:104E40000200000000F0000000000101011F01014C
:104E50000100000000000000000080B070000000B1
:104E6000000000000000000000000001010101013D
:104E700001010000000000000000003030000000D0
:104E800000000000000080601804006018060100A7
:104E9000000000E010080810E000000F10202010B3
:104EA0000F00001010F8000000000020203F20201C
:104EB00000000070080808887000003028242221B3
:104EC0003000003008888848300000182020201169
:104ED0000E000000C02010F8000000070424243F4A
:104EE000240000F8088888080800001921202011F3
:104EF0000E0000E0108888180000000F112020111B
:104F00000E0000380808C83808000000003F000004
:104F100000000070880808887000001C22212122EF
:104F20001C0000E010080810E000000031222211EF
:104F30000F00000000C0C000000000000030300082
:104F40000000000000800000000000008060000001
:104F5000000000008040201008000001020408103A
:104F60002000404040404040400004040404040449
:104F700004000008102040800000002010080402F7
:104F80000100007048080808F000000000303601F9
:104F90000000C030C828E810E000071827242314B8
:104FA0000B000000C038E0000000203C2302022774
:104FB000382008F8888888700000203F20202011C1
:104FC0000E00C030080808083800071820202010FC
:104FD000080008F808080810E000203F20202010F2
:104FE0000F0008F88888E8081000203F20202320C0
:104FF000180008F88888E8081000203F2000030007
:105000000000C03008080838000007182020221EC1
:10501000020008F808000008F808203F21010121DB
:105020003F20000808F8080800000020203F20204A
:10503000000000000808F8080800C08080807F0099
:10504000000008F888C028180800203F20012638F2
:10505000200008F8080000000000203F2020202049
:10506000300008F8F800F8F80800203F003F003F43
:10507000200008F830C00008F808203F200007187A
:105080003F00E01008080810E0000F10202020105A
:105090000F0008F808080808F000203F210101016E
:1050A0000000E01008080810E0000F182424385011
:1050B0004F0008F8888888887000203F2000030C83
:1050C000302000708808080838000038202121228C
:1050D0001C00180808F8080818000000203F2000ED
:1050E000000008F808000008F808001F2020202011
:1050F0001F000878880000C83808000007380E0133
:105100000000F80800F80008F800033C0700073C1E
:105110000300081868808068180820302C03032CCE
:1051200030200838C800C83808000000203F2000A0
:10513000000010080808C838080020382621202060
:105140001800000000FE020202000000007F404044
:105150004000000C30C000000000000000010638D4
:10516000C00000020202FE000000004040407F003C
:105170000000000004020202040000000000000021
:10518000000000000000000000008080808080801F
:105190008080000202040000000000000000000007
:1051A000000000008080808000000019242222225C
:1051B0003F2008F8008080000000003F11202011EF
:1051C0000E000000008080800000000E11202020D2
:1051D0001100000000808088F800000E11202010CF
:1051E0003F200000808080800000001F22222222B9
:1051F0001300008080F0888888180020203F20203D
:1052000000000000808080808000006B9494949364
:10521000600008F8008080800000203F210000200E
:105220003F2000809898000000000020203F2020B0
:105230000000000000809898000000C08080807FFF
:10524000000008F8000080808000203F24022D30FC
:105250002000000808F8000000000020203F202067
:1052600000008080808080808000203F20003F20E0
:10527000003F8080008080800000203F21000020CF
:105280003F200000808080800000001F2020202020
:105290001F00808000808000000080FFA12020117E
:1052A0000E000000008080808000000E112020A0F1
:1052B000FF80808080008080800020203F212000AF
:1052C000010000008080808080000033242424249A
:1052D0001900008080E0808000000000001F202076
:1052E00000008080000000808000001F202020102F
:1052F0003F20808080000080808000010E30080602
:10530000010080800080008080800F300C030C3012
:105310000F0000808000808080000020312E0E3140
:105320002000808080000080808080818E70180640
:10533000010000808080808080000021302C2221AC
:10534000300000000000807C020200000000003FEE
:10535000404000000000FF00000000000000FF00CF
:1053600000000002027C800000000040403F00007E
:105370000000000601010202040400000000000019
:10538000000004000008000000000000000200010E
:105390000000100000000000000000003031323337
:1053A0003435363738394142434445464030580059
:1053B000303132333435363738396162636465668B
:1053C0004030780030313233343536373839616225
:1053D000636465667870003031323334353637387F
:1053E0003941424344454658500000000240000005
:1053F000000000A00000000005400000000000C800
:10540000000000000C4000000000409C0000000074
:10541000194000000020BCBE000000003440000025
:10542000BFC91B8E00000004B5400000504BCFD018
:105430006607E2CF010000006C4100003E8251AAE5
:10544000DFEEA73401000000D9420000DCB5A0E285
:105450003A301F97FFFFFFFFB4450000FD25A0C8AD
:10546000E9A3C14FFFFFFFFFFF3F000000000080E6
:1054700000000000FF3F000000000080000000006E
:10548000CC55000800000020340000006C0100082A
:105490000056000834000020BC0E000088010008FF
:1054A0001C00000043000000F8FFFFFF0C0000009C
:1054B0000E0000000F0000002E0000001001000090
:1054C00043000000F8FFFFFF0040404040404040E4
:1054D00040404141414141404040404040404040C7
:1054E000404040404040404040050202020202026B
:1054F00002020202020202020220202020202020BA
:1055000020202002020202020202909090909090CD
:10551000101010101010101010101010101010108B
:1055200010101010020202020202888888888888FF
:1055300008080808080808080808080808080808EB
:1055400008080808020202024000000000000000F3
:10555000000000000000000000000000000000004B
:10556000000000000000000000000000000000003B
:10557000000000000000000000000000000000002B
:10558000000000000000000000000000000000001B
:10559000000000000000000000000000000000000B
:1055A00000000000000000000000000000000000FB
:1055B00000000000000000000000000000000000EB
:1055C00000000000000000000000000001000000DA
:1055D00010000000000000000024F4000000D007CC
:1055E000E803E803D007000000000000000000000E
:1055F00000000000AA05ED06DC0508070000000019
:0400000508000131BD
:00000001FF
